{
  "address": "0x3539e935e1e1878F0607B0350cCe8A33DD3c5d62",
  "abi": [
    {
      "inputs": [],
      "name": "AccessControlBadConfirmation",
      "type": "error"
    },
    {
      "inputs": [
        {
          "internalType": "address",
          "name": "account",
          "type": "address"
        },
        {
          "internalType": "bytes32",
          "name": "neededRole",
          "type": "bytes32"
        }
      ],
      "name": "AccessControlUnauthorizedAccount",
      "type": "error"
    },
    {
      "inputs": [],
      "name": "ERC721EnumerableForbiddenBatchMint",
      "type": "error"
    },
    {
      "inputs": [
        {
          "internalType": "address",
          "name": "sender",
          "type": "address"
        },
        {
          "internalType": "uint256",
          "name": "tokenId",
          "type": "uint256"
        },
        {
          "internalType": "address",
          "name": "owner",
          "type": "address"
        }
      ],
      "name": "ERC721IncorrectOwner",
      "type": "error"
    },
    {
      "inputs": [
        {
          "internalType": "address",
          "name": "operator",
          "type": "address"
        },
        {
          "internalType": "uint256",
          "name": "tokenId",
          "type": "uint256"
        }
      ],
      "name": "ERC721InsufficientApproval",
      "type": "error"
    },
    {
      "inputs": [
        {
          "internalType": "address",
          "name": "approver",
          "type": "address"
        }
      ],
      "name": "ERC721InvalidApprover",
      "type": "error"
    },
    {
      "inputs": [
        {
          "internalType": "address",
          "name": "operator",
          "type": "address"
        }
      ],
      "name": "ERC721InvalidOperator",
      "type": "error"
    },
    {
      "inputs": [
        {
          "internalType": "address",
          "name": "owner",
          "type": "address"
        }
      ],
      "name": "ERC721InvalidOwner",
      "type": "error"
    },
    {
      "inputs": [
        {
          "internalType": "address",
          "name": "receiver",
          "type": "address"
        }
      ],
      "name": "ERC721InvalidReceiver",
      "type": "error"
    },
    {
      "inputs": [
        {
          "internalType": "address",
          "name": "sender",
          "type": "address"
        }
      ],
      "name": "ERC721InvalidSender",
      "type": "error"
    },
    {
      "inputs": [
        {
          "internalType": "uint256",
          "name": "tokenId",
          "type": "uint256"
        }
      ],
      "name": "ERC721NonexistentToken",
      "type": "error"
    },
    {
      "inputs": [
        {
          "internalType": "address",
          "name": "owner",
          "type": "address"
        },
        {
          "internalType": "uint256",
          "name": "index",
          "type": "uint256"
        }
      ],
      "name": "ERC721OutOfBoundsIndex",
      "type": "error"
    },
    {
      "inputs": [],
      "name": "EnforcedPause",
      "type": "error"
    },
    {
      "inputs": [],
      "name": "ExpectedPause",
      "type": "error"
    },
    {
      "inputs": [],
      "name": "InvalidInitialization",
      "type": "error"
    },
    {
      "inputs": [],
      "name": "NotInitializing",
      "type": "error"
    },
    {
      "inputs": [
        {
          "internalType": "address",
          "name": "owner",
          "type": "address"
        }
      ],
      "name": "OwnableInvalidOwner",
      "type": "error"
    },
    {
      "inputs": [
        {
          "internalType": "address",
          "name": "account",
          "type": "address"
        }
      ],
      "name": "OwnableUnauthorizedAccount",
      "type": "error"
    },
    {
      "anonymous": false,
      "inputs": [
        {
          "indexed": true,
          "internalType": "address",
          "name": "owner",
          "type": "address"
        },
        {
          "indexed": true,
          "internalType": "address",
          "name": "approved",
          "type": "address"
        },
        {
          "indexed": true,
          "internalType": "uint256",
          "name": "tokenId",
          "type": "uint256"
        }
      ],
      "name": "Approval",
      "type": "event"
    },
    {
      "anonymous": false,
      "inputs": [
        {
          "indexed": true,
          "internalType": "address",
          "name": "owner",
          "type": "address"
        },
        {
          "indexed": true,
          "internalType": "address",
          "name": "operator",
          "type": "address"
        },
        {
          "indexed": false,
          "internalType": "bool",
          "name": "approved",
          "type": "bool"
        }
      ],
      "name": "ApprovalForAll",
      "type": "event"
    },
    {
      "anonymous": false,
      "inputs": [
        {
          "indexed": false,
          "internalType": "uint256[]",
          "name": "tokenId",
          "type": "uint256[]"
        }
      ],
      "name": "BatchBurned",
      "type": "event"
    },
    {
      "anonymous": false,
      "inputs": [
        {
          "indexed": false,
          "internalType": "uint256",
          "name": "_fromTokenId",
          "type": "uint256"
        },
        {
          "indexed": false,
          "internalType": "uint256",
          "name": "_toTokenId",
          "type": "uint256"
        }
      ],
      "name": "BatchMetadataUpdate",
      "type": "event"
    },
    {
      "anonymous": false,
      "inputs": [
        {
          "indexed": false,
          "internalType": "address",
          "name": "to",
          "type": "address"
        },
        {
          "indexed": false,
          "internalType": "uint256[]",
          "name": "tokenId",
          "type": "uint256[]"
        }
      ],
      "name": "BatchMinted",
      "type": "event"
    },
    {
      "anonymous": false,
      "inputs": [
        {
          "indexed": false,
          "internalType": "address",
          "name": "user",
          "type": "address"
        },
        {
          "indexed": false,
          "internalType": "uint256",
          "name": "tokenId",
          "type": "uint256"
        }
      ],
      "name": "Burned",
      "type": "event"
    },
    {
      "anonymous": false,
      "inputs": [
        {
          "indexed": false,
          "internalType": "uint64",
          "name": "version",
          "type": "uint64"
        }
      ],
      "name": "Initialized",
      "type": "event"
    },
    {
      "anonymous": false,
      "inputs": [
        {
          "indexed": false,
          "internalType": "uint256",
          "name": "_tokenId",
          "type": "uint256"
        }
      ],
      "name": "MetadataUpdate",
      "type": "event"
    },
    {
      "anonymous": false,
      "inputs": [
        {
          "indexed": false,
          "internalType": "address",
          "name": "to",
          "type": "address"
        },
        {
          "indexed": false,
          "internalType": "uint256",
          "name": "tokenId",
          "type": "uint256"
        }
      ],
      "name": "Minted",
      "type": "event"
    },
    {
      "anonymous": false,
      "inputs": [
        {
          "indexed": true,
          "internalType": "address",
          "name": "previousOwner",
          "type": "address"
        },
        {
          "indexed": true,
          "internalType": "address",
          "name": "newOwner",
          "type": "address"
        }
      ],
      "name": "OwnershipTransferred",
      "type": "event"
    },
    {
      "anonymous": false,
      "inputs": [
        {
          "indexed": false,
          "internalType": "address",
          "name": "account",
          "type": "address"
        }
      ],
      "name": "Paused",
      "type": "event"
    },
    {
      "anonymous": false,
      "inputs": [
        {
          "indexed": true,
          "internalType": "bytes32",
          "name": "role",
          "type": "bytes32"
        },
        {
          "indexed": true,
          "internalType": "bytes32",
          "name": "previousAdminRole",
          "type": "bytes32"
        },
        {
          "indexed": true,
          "internalType": "bytes32",
          "name": "newAdminRole",
          "type": "bytes32"
        }
      ],
      "name": "RoleAdminChanged",
      "type": "event"
    },
    {
      "anonymous": false,
      "inputs": [
        {
          "indexed": true,
          "internalType": "bytes32",
          "name": "role",
          "type": "bytes32"
        },
        {
          "indexed": true,
          "internalType": "address",
          "name": "account",
          "type": "address"
        },
        {
          "indexed": true,
          "internalType": "address",
          "name": "sender",
          "type": "address"
        }
      ],
      "name": "RoleGranted",
      "type": "event"
    },
    {
      "anonymous": false,
      "inputs": [
        {
          "indexed": true,
          "internalType": "bytes32",
          "name": "role",
          "type": "bytes32"
        },
        {
          "indexed": true,
          "internalType": "address",
          "name": "account",
          "type": "address"
        },
        {
          "indexed": true,
          "internalType": "address",
          "name": "sender",
          "type": "address"
        }
      ],
      "name": "RoleRevoked",
      "type": "event"
    },
    {
      "anonymous": false,
      "inputs": [
        {
          "indexed": true,
          "internalType": "address",
          "name": "from",
          "type": "address"
        },
        {
          "indexed": true,
          "internalType": "address",
          "name": "to",
          "type": "address"
        },
        {
          "indexed": true,
          "internalType": "uint256",
          "name": "tokenId",
          "type": "uint256"
        }
      ],
      "name": "Transfer",
      "type": "event"
    },
    {
      "anonymous": false,
      "inputs": [
        {
          "indexed": false,
          "internalType": "address",
          "name": "account",
          "type": "address"
        }
      ],
      "name": "Unpaused",
      "type": "event"
    },
    {
      "inputs": [],
      "name": "DEFAULT_ADMIN_ROLE",
      "outputs": [
        {
          "internalType": "bytes32",
          "name": "",
          "type": "bytes32"
        }
      ],
      "stateMutability": "view",
      "type": "function"
    },
    {
      "inputs": [],
      "name": "MINTER_ROLE",
      "outputs": [
        {
          "internalType": "bytes32",
          "name": "",
          "type": "bytes32"
        }
      ],
      "stateMutability": "view",
      "type": "function"
    },
    {
      "inputs": [
        {
          "internalType": "address",
          "name": "_account",
          "type": "address"
        }
      ],
      "name": "addToBlacklist",
      "outputs": [],
      "stateMutability": "nonpayable",
      "type": "function"
    },
    {
      "inputs": [
        {
          "internalType": "address",
          "name": "to",
          "type": "address"
        },
        {
          "internalType": "uint256",
          "name": "tokenId",
          "type": "uint256"
        }
      ],
      "name": "approve",
      "outputs": [],
      "stateMutability": "nonpayable",
      "type": "function"
    },
    {
      "inputs": [
        {
          "internalType": "address",
          "name": "owner",
          "type": "address"
        }
      ],
      "name": "balanceOf",
      "outputs": [
        {
          "internalType": "uint256",
          "name": "",
          "type": "uint256"
        }
      ],
      "stateMutability": "view",
      "type": "function"
    },
    {
      "inputs": [
        {
          "internalType": "uint256",
          "name": "tokenId",
          "type": "uint256"
        }
      ],
      "name": "burn",
      "outputs": [],
      "stateMutability": "nonpayable",
      "type": "function"
    },
    {
      "inputs": [
        {
          "internalType": "uint256[]",
          "name": "tokenIds",
          "type": "uint256[]"
        }
      ],
      "name": "burnBatch",
      "outputs": [],
      "stateMutability": "nonpayable",
      "type": "function"
    },
    {
      "inputs": [
        {
          "internalType": "uint256",
          "name": "price",
          "type": "uint256"
        },
        {
          "internalType": "bool",
          "name": "canBid",
          "type": "bool"
        },
        {
          "internalType": "enum PropertyNFT.PropertyType",
          "name": "propertyType",
          "type": "uint8"
        },
        {
          "internalType": "string",
          "name": "physicalAddress",
          "type": "string"
        },
        {
          "internalType": "uint256",
          "name": "rooms",
          "type": "uint256"
        },
        {
          "internalType": "uint256",
          "name": "bathrooms",
          "type": "uint256"
        },
        {
          "internalType": "uint256",
          "name": "area",
          "type": "uint256"
        }
      ],
      "name": "createProperty",
      "outputs": [],
      "stateMutability": "nonpayable",
      "type": "function"
    },
    {
      "inputs": [
        {
          "internalType": "uint256",
          "name": "price",
          "type": "uint256"
        },
        {
          "internalType": "enum PropertyNFT.PropertyType",
          "name": "propertyType",
          "type": "uint8"
        },
        {
          "internalType": "string",
          "name": "physicalAddress",
          "type": "string"
        },
        {
          "internalType": "uint256",
          "name": "rooms",
          "type": "uint256"
        },
        {
          "internalType": "uint256",
          "name": "bathrooms",
          "type": "uint256"
        },
        {
          "internalType": "uint256",
          "name": "area",
          "type": "uint256"
        }
      ],
      "name": "createPropertyShared",
      "outputs": [],
      "stateMutability": "nonpayable",
      "type": "function"
    },
    {
      "inputs": [],
      "name": "fractionalMarketplace",
      "outputs": [
        {
          "internalType": "contract IMarketplace",
          "name": "",
          "type": "address"
        }
      ],
      "stateMutability": "view",
      "type": "function"
    },
    {
      "inputs": [
        {
          "internalType": "uint256",
          "name": "tokenId",
          "type": "uint256"
        }
      ],
      "name": "getApproved",
      "outputs": [
        {
          "internalType": "address",
          "name": "",
          "type": "address"
        }
      ],
      "stateMutability": "view",
      "type": "function"
    },
    {
      "inputs": [],
      "name": "getNextTokenId",
      "outputs": [
        {
          "internalType": "uint256",
          "name": "",
          "type": "uint256"
        }
      ],
      "stateMutability": "view",
      "type": "function"
    },
    {
      "inputs": [
        {
          "internalType": "bytes32",
          "name": "role",
          "type": "bytes32"
        }
      ],
      "name": "getRoleAdmin",
      "outputs": [
        {
          "internalType": "bytes32",
          "name": "",
          "type": "bytes32"
        }
      ],
      "stateMutability": "view",
      "type": "function"
    },
    {
      "inputs": [
        {
          "internalType": "address",
          "name": "_minter",
          "type": "address"
        }
      ],
      "name": "grantMinterRole",
      "outputs": [],
      "stateMutability": "nonpayable",
      "type": "function"
    },
    {
      "inputs": [
        {
          "internalType": "bytes32",
          "name": "role",
          "type": "bytes32"
        },
        {
          "internalType": "address",
          "name": "account",
          "type": "address"
        }
      ],
      "name": "grantRole",
      "outputs": [],
      "stateMutability": "nonpayable",
      "type": "function"
    },
    {
      "inputs": [
        {
          "internalType": "bytes32",
          "name": "role",
          "type": "bytes32"
        },
        {
          "internalType": "address",
          "name": "account",
          "type": "address"
        }
      ],
      "name": "hasRole",
      "outputs": [
        {
          "internalType": "bool",
          "name": "",
          "type": "bool"
        }
      ],
      "stateMutability": "view",
      "type": "function"
    },
    {
      "inputs": [],
      "name": "initialize",
      "outputs": [],
      "stateMutability": "nonpayable",
      "type": "function"
    },
    {
      "inputs": [
        {
          "internalType": "address",
          "name": "owner",
          "type": "address"
        },
        {
          "internalType": "address",
          "name": "operator",
          "type": "address"
        }
      ],
      "name": "isApprovedForAll",
      "outputs": [
        {
          "internalType": "bool",
          "name": "",
          "type": "bool"
        }
      ],
      "stateMutability": "view",
      "type": "function"
    },
    {
      "inputs": [
        {
          "internalType": "address",
          "name": "_account",
          "type": "address"
        }
      ],
      "name": "isBlackListed",
      "outputs": [
        {
          "internalType": "bool",
          "name": "",
          "type": "bool"
        }
      ],
      "stateMutability": "view",
      "type": "function"
    },
    {
      "inputs": [],
      "name": "marketplace",
      "outputs": [
        {
          "internalType": "contract IMarketplace",
          "name": "",
          "type": "address"
        }
      ],
      "stateMutability": "view",
      "type": "function"
    },
    {
      "inputs": [],
      "name": "name",
      "outputs": [
        {
          "internalType": "string",
          "name": "",
          "type": "string"
        }
      ],
      "stateMutability": "view",
      "type": "function"
    },
    {
      "inputs": [],
      "name": "owner",
      "outputs": [
        {
          "internalType": "address",
          "name": "",
          "type": "address"
        }
      ],
      "stateMutability": "view",
      "type": "function"
    },
    {
      "inputs": [
        {
          "internalType": "uint256",
          "name": "tokenId",
          "type": "uint256"
        }
      ],
      "name": "ownerOf",
      "outputs": [
        {
          "internalType": "address",
          "name": "",
          "type": "address"
        }
      ],
      "stateMutability": "view",
      "type": "function"
    },
    {
      "inputs": [],
      "name": "pause",
      "outputs": [],
      "stateMutability": "nonpayable",
      "type": "function"
    },
    {
      "inputs": [],
      "name": "paused",
      "outputs": [
        {
          "internalType": "bool",
          "name": "",
          "type": "bool"
        }
      ],
      "stateMutability": "view",
      "type": "function"
    },
    {
      "inputs": [
        {
          "internalType": "uint256",
          "name": "",
          "type": "uint256"
        }
      ],
      "name": "propertyFeature",
      "outputs": [
        {
          "internalType": "enum PropertyNFT.PropertyType",
          "name": "propertyType",
          "type": "uint8"
        },
        {
          "internalType": "string",
          "name": "physicalAddress",
          "type": "string"
        },
        {
          "internalType": "uint256",
          "name": "rooms",
          "type": "uint256"
        },
        {
          "internalType": "uint256",
          "name": "bathrooms",
          "type": "uint256"
        },
        {
          "internalType": "uint256",
          "name": "area",
          "type": "uint256"
        }
      ],
      "stateMutability": "view",
      "type": "function"
    },
    {
      "inputs": [
        {
          "internalType": "address",
          "name": "_account",
          "type": "address"
        }
      ],
      "name": "removeFromBlacklist",
      "outputs": [],
      "stateMutability": "nonpayable",
      "type": "function"
    },
    {
      "inputs": [],
      "name": "renounceOwnership",
      "outputs": [],
      "stateMutability": "nonpayable",
      "type": "function"
    },
    {
      "inputs": [
        {
          "internalType": "bytes32",
          "name": "role",
          "type": "bytes32"
        },
        {
          "internalType": "address",
          "name": "callerConfirmation",
          "type": "address"
        }
      ],
      "name": "renounceRole",
      "outputs": [],
      "stateMutability": "nonpayable",
      "type": "function"
    },
    {
      "inputs": [
        {
          "internalType": "bytes32",
          "name": "role",
          "type": "bytes32"
        },
        {
          "internalType": "address",
          "name": "account",
          "type": "address"
        }
      ],
      "name": "revokeRole",
      "outputs": [],
      "stateMutability": "nonpayable",
      "type": "function"
    },
    {
      "inputs": [
        {
          "internalType": "address",
          "name": "from",
          "type": "address"
        },
        {
          "internalType": "address",
          "name": "to",
          "type": "address"
        },
        {
          "internalType": "uint256",
          "name": "tokenId",
          "type": "uint256"
        }
      ],
      "name": "safeTransferFrom",
      "outputs": [],
      "stateMutability": "nonpayable",
      "type": "function"
    },
    {
      "inputs": [
        {
          "internalType": "address",
          "name": "from",
          "type": "address"
        },
        {
          "internalType": "address",
          "name": "to",
          "type": "address"
        },
        {
          "internalType": "uint256",
          "name": "tokenId",
          "type": "uint256"
        },
        {
          "internalType": "bytes",
          "name": "data",
          "type": "bytes"
        }
      ],
      "name": "safeTransferFrom",
      "outputs": [],
      "stateMutability": "nonpayable",
      "type": "function"
    },
    {
      "inputs": [
        {
          "internalType": "address",
          "name": "operator",
          "type": "address"
        },
        {
          "internalType": "bool",
          "name": "approved",
          "type": "bool"
        }
      ],
      "name": "setApprovalForAll",
      "outputs": [],
      "stateMutability": "nonpayable",
      "type": "function"
    },
    {
      "inputs": [
        {
          "internalType": "address",
          "name": "_marketAddress",
          "type": "address"
        }
      ],
      "name": "setFractionalMarketplace",
      "outputs": [],
      "stateMutability": "nonpayable",
      "type": "function"
    },
    {
      "inputs": [
        {
          "internalType": "address",
          "name": "_marketAddress",
          "type": "address"
        }
      ],
      "name": "setMarketplaceAddress",
      "outputs": [],
      "stateMutability": "nonpayable",
      "type": "function"
    },
    {
      "inputs": [
        {
          "internalType": "uint256",
          "name": "tokenId",
          "type": "uint256"
        },
        {
          "internalType": "string",
          "name": "_tokenURI",
          "type": "string"
        }
      ],
      "name": "setTokenURI",
      "outputs": [],
      "stateMutability": "nonpayable",
      "type": "function"
    },
    {
      "inputs": [
        {
          "internalType": "bytes4",
          "name": "interfaceId",
          "type": "bytes4"
        }
      ],
      "name": "supportsInterface",
      "outputs": [
        {
          "internalType": "bool",
          "name": "",
          "type": "bool"
        }
      ],
      "stateMutability": "view",
      "type": "function"
    },
    {
      "inputs": [],
      "name": "symbol",
      "outputs": [
        {
          "internalType": "string",
          "name": "",
          "type": "string"
        }
      ],
      "stateMutability": "view",
      "type": "function"
    },
    {
      "inputs": [
        {
          "internalType": "uint256",
          "name": "index",
          "type": "uint256"
        }
      ],
      "name": "tokenByIndex",
      "outputs": [
        {
          "internalType": "uint256",
          "name": "",
          "type": "uint256"
        }
      ],
      "stateMutability": "view",
      "type": "function"
    },
    {
      "inputs": [
        {
          "internalType": "address",
          "name": "owner",
          "type": "address"
        },
        {
          "internalType": "uint256",
          "name": "index",
          "type": "uint256"
        }
      ],
      "name": "tokenOfOwnerByIndex",
      "outputs": [
        {
          "internalType": "uint256",
          "name": "",
          "type": "uint256"
        }
      ],
      "stateMutability": "view",
      "type": "function"
    },
    {
      "inputs": [
        {
          "internalType": "uint256",
          "name": "tokenId",
          "type": "uint256"
        }
      ],
      "name": "tokenURI",
      "outputs": [
        {
          "internalType": "string",
          "name": "",
          "type": "string"
        }
      ],
      "stateMutability": "view",
      "type": "function"
    },
    {
      "inputs": [
        {
          "internalType": "address",
          "name": "_account",
          "type": "address"
        }
      ],
      "name": "tokensByAddress",
      "outputs": [
        {
          "internalType": "uint256[]",
          "name": "",
          "type": "uint256[]"
        }
      ],
      "stateMutability": "view",
      "type": "function"
    },
    {
      "inputs": [],
      "name": "totalSupply",
      "outputs": [
        {
          "internalType": "uint256",
          "name": "",
          "type": "uint256"
        }
      ],
      "stateMutability": "view",
      "type": "function"
    },
    {
      "inputs": [
        {
          "internalType": "address",
          "name": "from",
          "type": "address"
        },
        {
          "internalType": "address",
          "name": "to",
          "type": "address"
        },
        {
          "internalType": "uint256",
          "name": "tokenId",
          "type": "uint256"
        }
      ],
      "name": "transferFrom",
      "outputs": [],
      "stateMutability": "nonpayable",
      "type": "function"
    },
    {
      "inputs": [
        {
          "internalType": "address",
          "name": "newOwner",
          "type": "address"
        }
      ],
      "name": "transferOwnership",
      "outputs": [],
      "stateMutability": "nonpayable",
      "type": "function"
    },
    {
      "inputs": [],
      "name": "unpause",
      "outputs": [],
      "stateMutability": "nonpayable",
      "type": "function"
    }
  ],
  "transactionHash": "0x4337deef32be1abdc2f848f8ba62864e175daa73391f17f0f8c87fbef34d94f0",
  "args": [],
  "numDeployments": 1,
  "solcInputHash": "92f01cc57c374d5f94c04d6c65f2fa36",
  "bytecode": "0x608060405234801561001057600080fd5b50612fe5806100206000396000f3fe608060405234801561001057600080fd5b506004361061028a5760003560e01c806370a082311161015c578063b88d4fde116100ce578063e4623c1b11610087578063e4623c1b14610580578063e47d606014610593578063e985e9c5146105bf578063f16890fe146105d2578063f2fde38b146105f6578063fa7868041461060957600080fd5b8063b88d4fde1461050a578063c87b56dd1461051d578063caa0f92a14610530578063d539139314610538578063d547741f1461054d578063d6bc59421461056057600080fd5b806391d148541161012057806391d14854146104ae57806395d89b41146104c1578063a217fddf146104c9578063a22cb465146104d1578063abc8c7af146104e4578063b47cc556146104f757600080fd5b806370a082311461047b578063715018a61461048e5780638129fc1c146104965780638456cb591461049e5780638da5cb5b146104a657600080fd5b806336568abe116102005780634f6ccce7116101b95780634f6ccce714610404578063537df3b6146104175780635c975abb1461042a5780636352211e1461044257806367b840a5146104555780636b8de4c91461046857600080fd5b806336568abe1461039d5780633dd1eb61146103b05780633f4ba83a146103c357806342842e0e146103cb57806342966c68146103de57806344337ea1146103f157600080fd5b806318160ddd1161025257806318160ddd1461031f578063236a6a411461033e57806323b872dd14610351578063248a9ca3146103645780632f2ff15d146103775780632f745c591461038a57600080fd5b806301ffc9a71461028f57806306fdde03146102b7578063081812fc146102cc578063095ea7b3146102f7578063162094c41461030c575b600080fd5b6102a261029d366004612717565b61061c565b60405190151581526020015b60405180910390f35b6102bf61062d565b6040516102ae9190612784565b6102df6102da366004612797565b6106d1565b6040516001600160a01b0390911681526020016102ae565b61030a6103053660046127cc565b6106e6565b005b61030a61031a3660046128b5565b6106f5565b600080516020612f50833981519152545b6040519081526020016102ae565b61030a61034c36600461291b565b610720565b61030a61035f36600461299e565b6108a4565b610330610372366004612797565b610934565b61030a6103853660046129da565b610956565b6103306103983660046127cc565b610972565b61030a6103ab3660046129da565b6109e6565b61030a6103be366004612a06565b610a1e565b61030a610a3e565b61030a6103d936600461299e565b610a50565b61030a6103ec366004612797565b610a6b565b61030a6103ff366004612a06565b610aec565b610330610412366004612797565b610b81565b61030a610425366004612a06565b610bf9565b600080516020612f908339815191525460ff166102a2565b6102df610450366004612797565b610c8a565b61030a610463366004612a06565b610c95565b6001546102df906001600160a01b031681565b610330610489366004612a06565b610cbf565b61030a610d1b565b61030a610d2d565b61030a610ee7565b6102df610ef7565b6102a26104bc3660046129da565b610f25565b6102bf610f5d565b610330600081565b61030a6104df366004612a21565b610f9c565b6000546102df906001600160a01b031681565b61030a610505366004612a06565b610fa7565b61030a610518366004612a4b565b610fd1565b6102bf61052b366004612797565b610fe9565b600254610330565b610330600080516020612f3083398151915281565b61030a61055b3660046129da565b610ff4565b61057361056e366004612a06565b611010565b6040516102ae9190612ac7565b61030a61058e366004612b0b565b6110b2565b6102a26105a1366004612a06565b6001600160a01b031660009081526005602052604090205460ff1690565b6102a26105cd366004612bb1565b61117a565b6105e56105e0366004612797565b6111c7565b6040516102ae959493929190612bf1565b61030a610604366004612a06565b611282565b61030a610617366004612c45565b6112c0565b60006106278261143b565b92915050565b600080516020612f10833981519152805460609190819061064d90612cb8565b80601f016020809104026020016040519081016040528092919081815260200182805461067990612cb8565b80156106c65780601f1061069b576101008083540402835291602001916106c6565b820191906000526020600020905b8154815290600101906020018083116106a957829003601f168201915b505050505091505090565b60006106dc82611460565b5061062782611498565b6106f18282336114d2565b5050565b61070d600080516020612f3083398151915233610f25565b61071657600080fd5b6106f182826114df565b600280546000918261073183612d08565b9091555060005490915061074e906001600160a01b031682611552565b600054604051638d5a29c560e01b815233600482015260248101839052604481018a905288151560648201526001600160a01b0390911690638d5a29c590608401600060405180830381600087803b1580156107a957600080fd5b505af11580156107bd573d6000803e3d6000fd5b505050506040518060a001604052808760028111156107de576107de612bdb565b815260208082018890526040808301889052606083018790526080909201859052600084815260049091522081518154829060ff1916600183600281111561082857610828612bdb565b0217905550602082015160018201906108419082612d67565b506040828101516002830155606083015160038301556080909201516004909101558051338152602081018390527f30385c845b448a36257a6a1716e6ad2e1bc2cbe333cde1e69fe849ad6511adfe910160405180910390a15050505050505050565b6001600160a01b0382166108d357604051633250574960e11b8152600060048201526024015b60405180910390fd5b60006108e083833361156c565b9050836001600160a01b0316816001600160a01b03161461092e576040516364283d7b60e01b81526001600160a01b03808616600483015260248201849052821660448201526064016108ca565b50505050565b6000908152600080516020612f70833981519152602052604090206001015490565b61095f82610934565b61096881611712565b61092e838361171c565b6000600080516020612ef083398151915261098c84610cbf565b83106109bd5760405163295f44f760e21b81526001600160a01b0385166004820152602481018490526044016108ca565b6001600160a01b0384166000908152602091825260408082208583529092522054905092915050565b6001600160a01b0381163314610a0f5760405163334bd91960e11b815260040160405180910390fd5b610a1982826117c1565b505050565b610a2661183d565b6106f1600080516020612f308339815191528261171c565b610a4661183d565b610a4e61186f565b565b610a1983838360405180602001604052806000815250610fd1565b610a83600080516020612f3083398151915233610f25565b610a8c57600080fd5b6000610a9782610c8a565b9050610aa56000838361156c565b50604080516001600160a01b0383168152602081018490527f696de425f79f4a40bc6d2122ca50507f0efbeabbff86a84871b7196ab8ea8df7910160405180910390a15050565b610af461183d565b6001600160a01b03811660009081526005602052604090205460ff1615610b5d5760405162461bcd60e51b815260206004820152601e60248201527f4164647265737320697320616c726561647920626c61636b6c6973746564000060448201526064016108ca565b6001600160a01b03166000908152600560205260409020805460ff19166001179055565b6000600080516020612ef0833981519152610ba8600080516020612f508339815191525490565b8310610bd15760405163295f44f760e21b815260006004820152602481018490526044016108ca565b806002018381548110610be657610be6612e27565b9060005260206000200154915050919050565b610c0161183d565b6001600160a01b03811660009081526005602052604090205460ff16610c695760405162461bcd60e51b815260206004820152601a60248201527f41646472657373206973206e6f7420626c61636b6c697374656400000000000060448201526064016108ca565b6001600160a01b03166000908152600560205260409020805460ff19169055565b600061062782611460565b610c9d61183d565b600180546001600160a01b0319166001600160a01b0392909216919091179055565b6000600080516020612f108339815191526001600160a01b038316610cfa576040516322718ad960e21b8152600060048201526024016108ca565b6001600160a01b039092166000908152600390920160205250604090205490565b610d2361183d565b610a4e60006118c9565b7ff0c57e16840df040f15088dc2f81fe391c3923bec73e23a9662efc9c229c6a008054600160401b810460ff16159067ffffffffffffffff16600081158015610d735750825b905060008267ffffffffffffffff166001148015610d905750303b155b905081158015610d9e575080155b15610dbc5760405163f92ee8a960e01b815260040160405180910390fd5b845467ffffffffffffffff191660011785558315610de657845460ff60401b1916600160401b1785555b610e3760405180604001604052806012815260200171115cdd185d1948141c9bdc195c9d1e53919560721b81525060405180604001604052806005815260200164115413919560da1b81525061193a565b610e403361194c565b610e4861195d565b610e5061195d565b610e58611965565b610e6061195d565b600160025562989681600355610e7e6000610e79610ef7565b61171c565b50610e99600080516020612f30833981519152610e79610ef7565b508315610ee057845460ff60401b19168555604051600181527fc7f505b2f371ae2175ee4913f4499e1f2633a7b5936321eed1cdaeb6115181d29060200160405180910390a15b5050505050565b610eef61183d565b610a4e611975565b7f9016d09d72d40fdae2fd8ceac6b6234c7706214fd39c1cd1e609a0528c199300546001600160a01b031690565b6000918252600080516020612f70833981519152602090815260408084206001600160a01b0393909316845291905290205460ff1690565b7f80bb2b638cc20bc4d0a60d66940f3ab4a00c1d7b313497ca82fb0b4ab00793018054606091600080516020612f108339815191529161064d90612cb8565b6106f13383836119be565b610faf61183d565b600080546001600160a01b0319166001600160a01b0392909216919091179055565b610fdc8484846108a4565b61092e3385858585611a6f565b606061062782611b99565b610ffd82610934565b61100681611712565b61092e83836117c1565b6060600061101d83610cbf565b905060008167ffffffffffffffff81111561103a5761103a6127f6565b604051908082528060200260200182016040528015611063578160200160208202803683370190505b50905060005b828110156110aa5761107b8582610972565b82828151811061108d5761108d612e27565b6020908102919091010152806110a281612d08565b915050611069565b509392505050565b6110ca600080516020612f3083398151915233610f25565b6110d357600080fd5b60005b815181101561113f5760006111038383815181106110f6576110f6612e27565b6020026020010151610c8a565b905061112a600084848151811061111c5761111c612e27565b60200260200101518361156c565b5050808061113790612d08565b9150506110d6565b507f0e1c53559b41a9c289620f6f0f2a78f54c490fd5521704b4b4095fe4396988bc8160405161116f9190612ac7565b60405180910390a150565b6001600160a01b0391821660009081527f80bb2b638cc20bc4d0a60d66940f3ab4a00c1d7b313497ca82fb0b4ab00793056020908152604080832093909416825291909152205460ff1690565b6004602052600090815260409020805460018201805460ff90921692916111ed90612cb8565b80601f016020809104026020016040519081016040528092919081815260200182805461121990612cb8565b80156112665780601f1061123b57610100808354040283529160200191611266565b820191906000526020600020905b81548152906001019060200180831161124957829003601f168201915b5050505050908060020154908060030154908060040154905085565b61128a61183d565b6001600160a01b0381166112b457604051631e4fbdf760e01b8152600060048201526024016108ca565b6112bd816118c9565b50565b60038054600091826112d183612d08565b909155506001549091506112ee906001600160a01b031682611552565b60015460405163173afa1960e11b815233600482015260248101839052604481018990526001600160a01b0390911690632e75f43290606401600060405180830381600087803b15801561134157600080fd5b505af1158015611355573d6000803e3d6000fd5b505050506040518060a0016040528087600281111561137657611376612bdb565b815260208082018890526040808301889052606083018790526080909201859052600084815260049091522081518154829060ff191660018360028111156113c0576113c0612bdb565b0217905550602082015160018201906113d99082612d67565b506040828101516002830155606083015160038301556080909201516004909101558051338152602081018390527f30385c845b448a36257a6a1716e6ad2e1bc2cbe333cde1e69fe849ad6511adfe910160405180910390a150505050505050565b60006001600160e01b03198216637965db0b60e01b1480610627575061062782611cce565b60008061146c83611cf3565b90506001600160a01b03811661062757604051637e27328960e01b8152600481018490526024016108ca565b60009081527f80bb2b638cc20bc4d0a60d66940f3ab4a00c1d7b313497ca82fb0b4ab007930460205260409020546001600160a01b031690565b610a198383836001611d2d565b60008281527f0542a41881ee128a365a727b282c86fa859579490b9bb45aab8503648c8e7900602081905260409091206115198382612d67565b506040518381527ff8e1a15aba9398e019f0b49df1a4fde98ee17ae345cb5f6b5e2c27f5033e8ce79060200160405180910390a1505050565b6106f1828260405180602001604052806000815250611e43565b6001600160a01b03811660009081526005602052604081205460ff16156115d55760405162461bcd60e51b815260206004820152601e60248201527f5f7570646174653a2053656e64657220697320626c61636b6c6973746564000060448201526064016108ca565b6001600160a01b03841660009081526005602052604090205460ff16156116485760405162461bcd60e51b815260206004820152602160248201527f5f7570646174653a20526563697069656e7420697320626c61636b6c697374656044820152601960fa1b60648201526084016108ca565b6000546001600160a01b038381169116148061167157506000546001600160a01b038581169116145b8061168957506001546001600160a01b038381169116145b806116a157506001546001600160a01b038581169116145b6116ff5760405162461bcd60e51b815260206004820152602960248201527f5f7570646174653a204e6f7420616c6c6f77656420746f207472616e73666572604482015268081d1a1a5cc813919560ba1b60648201526084016108ca565b61170a848484611e5b565b949350505050565b6112bd8133611e70565b6000600080516020612f708339815191526117378484610f25565b6117b7576000848152602082815260408083206001600160a01b03871684529091529020805460ff1916600117905561176d3390565b6001600160a01b0316836001600160a01b0316857f2f8788117e7eff1d82e926ec794901d17c78024a50270940304540a733656f0d60405160405180910390a46001915050610627565b6000915050610627565b6000600080516020612f708339815191526117dc8484610f25565b156117b7576000848152602082815260408083206001600160a01b0387168085529252808320805460ff1916905551339287917ff6391f5c32d9c69d2a47ea670b442974b53935d1edc7fd64eb21e047a839171b9190a46001915050610627565b33611846610ef7565b6001600160a01b031614610a4e5760405163118cdaa760e01b81523360048201526024016108ca565b611877611ea9565b600080516020612f90833981519152805460ff191681557f5db9ee0a495bf2e6ff9c91a7834c1ba4fdd244a5e8aa4e537bd38aeae4b073aa335b6040516001600160a01b03909116815260200161116f565b7f9016d09d72d40fdae2fd8ceac6b6234c7706214fd39c1cd1e609a0528c19930080546001600160a01b031981166001600160a01b03848116918217845560405192169182907f8be0079c531659141344cd1fd0a4f28419497f9722a3daafe3b4186f6b6457e090600090a3505050565b611942611ed9565b6106f18282611f22565b611954611ed9565b6112bd81611f53565b610a4e611ed9565b61196d611ed9565b610a4e611f5b565b61197d611f7c565b600080516020612f90833981519152805460ff191660011781557f62e78cea01bee320cd4e420270b5ea74000d11b0c9f74754ebdbfc544b05a258336118b1565b600080516020612f108339815191526001600160a01b0383166119ff57604051630b61174360e31b81526001600160a01b03841660048201526024016108ca565b6001600160a01b038481166000818152600584016020908152604080832094881680845294825291829020805460ff191687151590811790915591519182527f17307eab39ab6107e8899845ad3d59bd9653f200f220920489ca2b5937696c31910160405180910390a350505050565b6001600160a01b0383163b15610ee057604051630a85bd0160e11b81526001600160a01b0384169063150b7a0290611ab1908890889087908790600401612e3d565b6020604051808303816000875af1925050508015611aec575060408051601f3d908101601f19168201909252611ae991810190612e7a565b60015b611b55573d808015611b1a576040519150601f19603f3d011682016040523d82523d6000602084013e611b1f565b606091505b508051600003611b4d57604051633250574960e11b81526001600160a01b03851660048201526024016108ca565b805181602001fd5b6001600160e01b03198116630a85bd0160e11b14611b9157604051633250574960e11b81526001600160a01b03851660048201526024016108ca565b505050505050565b60607f0542a41881ee128a365a727b282c86fa859579490b9bb45aab8503648c8e7900611bc583611460565b5060008381526020829052604081208054611bdf90612cb8565b80601f0160208091040260200160405190810160405280929190818152602001828054611c0b90612cb8565b8015611c585780601f10611c2d57610100808354040283529160200191611c58565b820191906000526020600020905b815481529060010190602001808311611c3b57829003601f168201915b505050505090506000611c7660408051602081019091526000815290565b90508051600003611c8957509392505050565b815115611cbc578082604051602001611ca3929190612e97565b6040516020818303038152906040529350505050919050565b611cc585611fad565b95945050505050565b60006001600160e01b03198216632483248360e11b1480610627575061062782612022565b60009081527f80bb2b638cc20bc4d0a60d66940f3ab4a00c1d7b313497ca82fb0b4ab007930260205260409020546001600160a01b031690565b600080516020612f108339815191528180611d5057506001600160a01b03831615155b15611e12576000611d6085611460565b90506001600160a01b03841615801590611d8c5750836001600160a01b0316816001600160a01b031614155b8015611d9f5750611d9d818561117a565b155b15611dc85760405163a9fbf51f60e01b81526001600160a01b03851660048201526024016108ca565b8215611e105784866001600160a01b0316826001600160a01b03167f8c5be1e5ebec7d5bd14f71427d1e84f3dd0314c0f7b2291e5b200ac8c7c3b92560405160405180910390a45b505b600093845260040160205250506040902080546001600160a01b0319166001600160a01b0392909216919091179055565b611e4d8383612047565b610a19336000858585611a6f565b6000611e65611f7c565b61170a8484846120ac565b611e7a8282610f25565b6106f15760405163e2517d3f60e01b81526001600160a01b0382166004820152602481018390526044016108ca565b600080516020612f908339815191525460ff16610a4e57604051638dfc202b60e01b815260040160405180910390fd5b7ff0c57e16840df040f15088dc2f81fe391c3923bec73e23a9662efc9c229c6a0054600160401b900460ff16610a4e57604051631afcd79f60e31b815260040160405180910390fd5b611f2a611ed9565b600080516020612f1083398151915280611f448482612d67565b506001810161092e8382612d67565b61128a611ed9565b611f63611ed9565b600080516020612f90833981519152805460ff19169055565b600080516020612f908339815191525460ff1615610a4e5760405163d93c066560e01b815260040160405180910390fd5b6060611fb882611460565b506000611fd060408051602081019091526000815290565b90506000815111611ff0576040518060200160405280600081525061201b565b80611ffa846121a5565b60405160200161200b929190612e97565b6040516020818303038152906040525b9392505050565b60006001600160e01b0319821663780e9d6360e01b1480610627575061062782612238565b6001600160a01b03821661207157604051633250574960e11b8152600060048201526024016108ca565b600061207f8383600061156c565b90506001600160a01b03811615610a19576040516339e3563760e11b8152600060048201526024016108ca565b6000806120ba858585612288565b90506001600160a01b0381166121435761213e84600080516020612f50833981519152805460008381527f645e039705490088daad89bae25049a34f4a9072d398537b1ab2425f24cbed0360205260408120829055600182018355919091527fa42f15e5d656f8155fd7419d740a6073999f19cd6e061449ce4a257150545bf20155565b612166565b846001600160a01b0316816001600160a01b031614612166576121668185612392565b6001600160a01b0385166121825761217d8461242e565b61170a565b846001600160a01b0316816001600160a01b03161461170a5761170a8585612505565b606060006121b283612560565b600101905060008167ffffffffffffffff8111156121d2576121d26127f6565b6040519080825280601f01601f1916602001820160405280156121fc576020820181803683370190505b5090508181016020015b600019016f181899199a1a9b1b9c1cb0b131b232b360811b600a86061a8153600a850494508461220657509392505050565b60006001600160e01b031982166380ac58cd60e01b148061226957506001600160e01b03198216635b5e139f60e01b145b8061062757506301ffc9a760e01b6001600160e01b0319831614610627565b6000600080516020612f10833981519152816122a385611cf3565b90506001600160a01b038416156122bf576122bf818587612638565b6001600160a01b038116156122ff576122dc600086600080611d2d565b6001600160a01b0381166000908152600383016020526040902080546000190190555b6001600160a01b03861615612330576001600160a01b03861660009081526003830160205260409020805460010190555b600085815260028301602052604080822080546001600160a01b0319166001600160a01b038a811691821790925591518893918516917fddf252ad1be2c89b69c2b068fc378daa952ba7f163c4a11628f55a4df523b3ef91a495945050505050565b600080516020612ef083398151915260006123ac84610cbf565b60008481526001840160209081526040808320546001600160a01b03891684529186905290912091925090818314612406576000838152602082815260408083205485845281842081905583526001870190915290208290555b6000948552600190930160209081526040808620869055928552929092528220919091555050565b600080516020612f5083398151915254600080516020612ef08339815191529060009061245d90600190612ec6565b600084815260038401602052604081205460028501805493945090928490811061248957612489612e27565b90600052602060002001549050808460020183815481106124ac576124ac612e27565b6000918252602080832090910192909255828152600386019091526040808220849055868252812055600284018054806124e8576124e8612ed9565b600190038181906000526020600020016000905590555050505050565b600080516020612ef08339815191526000600161252185610cbf565b61252b9190612ec6565b6001600160a01b0390941660009081526020838152604080832087845282528083208690559482526001909301909252502055565b60008072184f03e93ff9f4daa797ed6e38ed64bf6a1f0160401b831061259f5772184f03e93ff9f4daa797ed6e38ed64bf6a1f0160401b830492506040015b6d04ee2d6d415b85acef810000000083106125cb576d04ee2d6d415b85acef8100000000830492506020015b662386f26fc1000083106125e957662386f26fc10000830492506010015b6305f5e1008310612601576305f5e100830492506008015b612710831061261557612710830492506004015b60648310612627576064830492506002015b600a83106106275760010192915050565b61264383838361269c565b610a19576001600160a01b03831661267157604051637e27328960e01b8152600481018290526024016108ca565b60405163177e802f60e01b81526001600160a01b0383166004820152602481018290526044016108ca565b60006001600160a01b0383161580159061170a5750826001600160a01b0316846001600160a01b031614806126d657506126d6848461117a565b8061170a5750826001600160a01b03166126ef83611498565b6001600160a01b031614949350505050565b6001600160e01b0319811681146112bd57600080fd5b60006020828403121561272957600080fd5b813561201b81612701565b60005b8381101561274f578181015183820152602001612737565b50506000910152565b60008151808452612770816020860160208601612734565b601f01601f19169290920160200192915050565b60208152600061201b6020830184612758565b6000602082840312156127a957600080fd5b5035919050565b80356001600160a01b03811681146127c757600080fd5b919050565b600080604083850312156127df57600080fd5b6127e8836127b0565b946020939093013593505050565b634e487b7160e01b600052604160045260246000fd5b604051601f8201601f1916810167ffffffffffffffff81118282101715612835576128356127f6565b604052919050565b600067ffffffffffffffff831115612857576128576127f6565b61286a601f8401601f191660200161280c565b905082815283838301111561287e57600080fd5b828260208301376000602084830101529392505050565b600082601f8301126128a657600080fd5b61201b8383356020850161283d565b600080604083850312156128c857600080fd5b82359150602083013567ffffffffffffffff8111156128e657600080fd5b6128f285828601612895565b9150509250929050565b803580151581146127c757600080fd5b8035600381106127c757600080fd5b600080600080600080600060e0888a03121561293657600080fd5b87359650612946602089016128fc565b95506129546040890161290c565b9450606088013567ffffffffffffffff81111561297057600080fd5b61297c8a828b01612895565b979a969950949760808101359660a0820135965060c090910135945092505050565b6000806000606084860312156129b357600080fd5b6129bc846127b0565b92506129ca602085016127b0565b9150604084013590509250925092565b600080604083850312156129ed57600080fd5b823591506129fd602084016127b0565b90509250929050565b600060208284031215612a1857600080fd5b61201b826127b0565b60008060408385031215612a3457600080fd5b612a3d836127b0565b91506129fd602084016128fc565b60008060008060808587031215612a6157600080fd5b612a6a856127b0565b9350612a78602086016127b0565b925060408501359150606085013567ffffffffffffffff811115612a9b57600080fd5b8501601f81018713612aac57600080fd5b612abb8782356020840161283d565b91505092959194509250565b6020808252825182820181905260009190848201906040850190845b81811015612aff57835183529284019291840191600101612ae3565b50909695505050505050565b60006020808385031215612b1e57600080fd5b823567ffffffffffffffff80821115612b3657600080fd5b818501915085601f830112612b4a57600080fd5b813581811115612b5c57612b5c6127f6565b8060051b9150612b6d84830161280c565b8181529183018401918481019088841115612b8757600080fd5b938501935b83851015612ba557843582529385019390850190612b8c565b98975050505050505050565b60008060408385031215612bc457600080fd5b612bcd836127b0565b91506129fd602084016127b0565b634e487b7160e01b600052602160045260246000fd5b600060038710612c1157634e487b7160e01b600052602160045260246000fd5b86825260a06020830152612c2860a0830187612758565b604083019590955250606081019290925260809091015292915050565b60008060008060008060c08789031215612c5e57600080fd5b86359550612c6e6020880161290c565b9450604087013567ffffffffffffffff811115612c8a57600080fd5b612c9689828a01612895565b945050606087013592506080870135915060a087013590509295509295509295565b600181811c90821680612ccc57607f821691505b602082108103612cec57634e487b7160e01b600052602260045260246000fd5b50919050565b634e487b7160e01b600052601160045260246000fd5b600060018201612d1a57612d1a612cf2565b5060010190565b601f821115610a1957600081815260208120601f850160051c81016020861015612d485750805b601f850160051c820191505b81811015611b9157828155600101612d54565b815167ffffffffffffffff811115612d8157612d816127f6565b612d9581612d8f8454612cb8565b84612d21565b602080601f831160018114612dca5760008415612db25750858301515b600019600386901b1c1916600185901b178555611b91565b600085815260208120601f198616915b82811015612df957888601518255948401946001909101908401612dda565b5085821015612e175787850151600019600388901b60f8161c191681555b5050505050600190811b01905550565b634e487b7160e01b600052603260045260246000fd5b6001600160a01b0385811682528416602082015260408101839052608060608201819052600090612e7090830184612758565b9695505050505050565b600060208284031215612e8c57600080fd5b815161201b81612701565b60008351612ea9818460208801612734565b835190830190612ebd818360208801612734565b01949350505050565b8181038181111561062757610627612cf2565b634e487b7160e01b600052603160045260246000fdfe645e039705490088daad89bae25049a34f4a9072d398537b1ab2425f24cbed0080bb2b638cc20bc4d0a60d66940f3ab4a00c1d7b313497ca82fb0b4ab00793009f2df0fed2c77648de5860a4cc508cd0818c85b8b8a1ab4ceeef8d981c8956a6645e039705490088daad89bae25049a34f4a9072d398537b1ab2425f24cbed0202dd7bc7dec4dceedda775e58dd541e08a116c6c53815c0bd028192f7b626800cd5ed15c6e187e77e9aee88184c21f4f2182ab5827cb3b7e07fbedcd63f03300a26469706673582212205c93e72a674056ede1c286f068a05bf8fbb093d1a326fcc9b284b3faf0301b2364736f6c63430008140033",
  "devdoc": {
    "details": "A smart contract for tokenizing real estate properties as NFTs Supports both full property ownership and fractional ownership Implements upgradeable pattern and role-based access control",
    "errors": {
      "AccessControlBadConfirmation()": [
        {
          "details": "The caller of a function is not the expected one. NOTE: Don't confuse with {AccessControlUnauthorizedAccount}."
        }
      ],
      "AccessControlUnauthorizedAccount(address,bytes32)": [
        {
          "details": "The `account` is missing a role."
        }
      ],
      "ERC721EnumerableForbiddenBatchMint()": [
        {
          "details": "Batch mint is not allowed."
        }
      ],
      "ERC721IncorrectOwner(address,uint256,address)": [
        {
          "details": "Indicates an error related to the ownership over a particular token. Used in transfers.",
          "params": {
            "owner": "Address of the current owner of a token.",
            "sender": "Address whose tokens are being transferred.",
            "tokenId": "Identifier number of a token."
          }
        }
      ],
      "ERC721InsufficientApproval(address,uint256)": [
        {
          "details": "Indicates a failure with the `operator`s approval. Used in transfers.",
          "params": {
            "operator": "Address that may be allowed to operate on tokens without being their owner.",
            "tokenId": "Identifier number of a token."
          }
        }
      ],
      "ERC721InvalidApprover(address)": [
        {
          "details": "Indicates a failure with the `approver` of a token to be approved. Used in approvals.",
          "params": {
            "approver": "Address initiating an approval operation."
          }
        }
      ],
      "ERC721InvalidOperator(address)": [
        {
          "details": "Indicates a failure with the `operator` to be approved. Used in approvals.",
          "params": {
            "operator": "Address that may be allowed to operate on tokens without being their owner."
          }
        }
      ],
      "ERC721InvalidOwner(address)": [
        {
          "details": "Indicates that an address can't be an owner. For example, `address(0)` is a forbidden owner in ERC-20. Used in balance queries.",
          "params": {
            "owner": "Address of the current owner of a token."
          }
        }
      ],
      "ERC721InvalidReceiver(address)": [
        {
          "details": "Indicates a failure with the token `receiver`. Used in transfers.",
          "params": {
            "receiver": "Address to which tokens are being transferred."
          }
        }
      ],
      "ERC721InvalidSender(address)": [
        {
          "details": "Indicates a failure with the token `sender`. Used in transfers.",
          "params": {
            "sender": "Address whose tokens are being transferred."
          }
        }
      ],
      "ERC721NonexistentToken(uint256)": [
        {
          "details": "Indicates a `tokenId` whose `owner` is the zero address.",
          "params": {
            "tokenId": "Identifier number of a token."
          }
        }
      ],
      "ERC721OutOfBoundsIndex(address,uint256)": [
        {
          "details": "An `owner`'s token query was out of bounds for `index`. NOTE: The owner being `address(0)` indicates a global out of bounds index."
        }
      ],
      "EnforcedPause()": [
        {
          "details": "The operation failed because the contract is paused."
        }
      ],
      "ExpectedPause()": [
        {
          "details": "The operation failed because the contract is not paused."
        }
      ],
      "InvalidInitialization()": [
        {
          "details": "The contract is already initialized."
        }
      ],
      "NotInitializing()": [
        {
          "details": "The contract is not initializing."
        }
      ],
      "OwnableInvalidOwner(address)": [
        {
          "details": "The owner is not a valid owner account. (eg. `address(0)`)"
        }
      ],
      "OwnableUnauthorizedAccount(address)": [
        {
          "details": "The caller account is not authorized to perform an operation."
        }
      ]
    },
    "events": {
      "Approval(address,address,uint256)": {
        "details": "Emitted when `owner` enables `approved` to manage the `tokenId` token."
      },
      "ApprovalForAll(address,address,bool)": {
        "details": "Emitted when `owner` enables or disables (`approved`) `operator` to manage all of its assets."
      },
      "BatchMetadataUpdate(uint256,uint256)": {
        "details": "This event emits when the metadata of a range of tokens is changed. So that the third-party platforms such as NFT market could timely update the images and related attributes of the NFTs."
      },
      "Initialized(uint64)": {
        "details": "Triggered when the contract has been initialized or reinitialized."
      },
      "MetadataUpdate(uint256)": {
        "details": "This event emits when the metadata of a token is changed. So that the third-party platforms such as NFT market could timely update the images and related attributes of the NFT."
      },
      "Paused(address)": {
        "details": "Emitted when the pause is triggered by `account`."
      },
      "RoleAdminChanged(bytes32,bytes32,bytes32)": {
        "details": "Emitted when `newAdminRole` is set as ``role``'s admin role, replacing `previousAdminRole` `DEFAULT_ADMIN_ROLE` is the starting admin for all roles, despite {RoleAdminChanged} not being emitted signaling this."
      },
      "RoleGranted(bytes32,address,address)": {
        "details": "Emitted when `account` is granted `role`. `sender` is the account that originated the contract call. This account bears the admin role (for the granted role). Expected in cases where the role was granted using the internal {AccessControl-_grantRole}."
      },
      "RoleRevoked(bytes32,address,address)": {
        "details": "Emitted when `account` is revoked `role`. `sender` is the account that originated the contract call:   - if using `revokeRole`, it is the admin role bearer   - if using `renounceRole`, it is the role bearer (i.e. `account`)"
      },
      "Transfer(address,address,uint256)": {
        "details": "Emitted when `tokenId` token is transferred from `from` to `to`."
      },
      "Unpaused(address)": {
        "details": "Emitted when the pause is lifted by `account`."
      }
    },
    "kind": "dev",
    "methods": {
      "addToBlacklist(address)": {
        "details": "Blacklist management functions Allows owner to restrict specific addresses from participating"
      },
      "approve(address,uint256)": {
        "details": "See {IERC721-approve}."
      },
      "balanceOf(address)": {
        "details": "See {IERC721-balanceOf}."
      },
      "createProperty(uint256,bool,uint8,string,uint256,uint256,uint256)": {
        "details": "Creates a new property NFT with full ownership",
        "params": {
          "area": "Size of the property in square meters",
          "bathrooms": "Number of bathrooms",
          "canBid": "Whether the property can receive bids",
          "physicalAddress": "Physical location of the property",
          "price": "The listing price of the property",
          "propertyType": "Type of property (APARTMENT, HOUSE)",
          "rooms": "Number of rooms"
        }
      },
      "createPropertyShared(uint256,uint8,string,uint256,uint256,uint256)": {
        "details": "Creates a new property NFT for fractional ownership Similar to createProperty but uses different token ID range and marketplace"
      },
      "getApproved(uint256)": {
        "details": "See {IERC721-getApproved}."
      },
      "getRoleAdmin(bytes32)": {
        "details": "Returns the admin role that controls `role`. See {grantRole} and {revokeRole}. To change a role's admin, use {_setRoleAdmin}."
      },
      "grantRole(bytes32,address)": {
        "details": "Grants `role` to `account`. If `account` had not been already granted `role`, emits a {RoleGranted} event. Requirements: - the caller must have ``role``'s admin role. May emit a {RoleGranted} event."
      },
      "hasRole(bytes32,address)": {
        "details": "Returns `true` if `account` has been granted `role`."
      },
      "initialize()": {
        "details": "Initializes the contract with basic settings Sets up the NFT name, symbol, and grants initial roles"
      },
      "isApprovedForAll(address,address)": {
        "details": "See {IERC721-isApprovedForAll}."
      },
      "name()": {
        "details": "See {IERC721Metadata-name}."
      },
      "owner()": {
        "details": "Returns the address of the current owner."
      },
      "ownerOf(uint256)": {
        "details": "See {IERC721-ownerOf}."
      },
      "paused()": {
        "details": "Returns true if the contract is paused, and false otherwise."
      },
      "renounceOwnership()": {
        "details": "Leaves the contract without owner. It will not be possible to call `onlyOwner` functions. Can only be called by the current owner. NOTE: Renouncing ownership will leave the contract without an owner, thereby disabling any functionality that is only available to the owner."
      },
      "renounceRole(bytes32,address)": {
        "details": "Revokes `role` from the calling account. Roles are often managed via {grantRole} and {revokeRole}: this function's purpose is to provide a mechanism for accounts to lose their privileges if they are compromised (such as when a trusted device is misplaced). If the calling account had been revoked `role`, emits a {RoleRevoked} event. Requirements: - the caller must be `callerConfirmation`. May emit a {RoleRevoked} event."
      },
      "revokeRole(bytes32,address)": {
        "details": "Revokes `role` from `account`. If `account` had been granted `role`, emits a {RoleRevoked} event. Requirements: - the caller must have ``role``'s admin role. May emit a {RoleRevoked} event."
      },
      "safeTransferFrom(address,address,uint256)": {
        "details": "See {IERC721-safeTransferFrom}."
      },
      "safeTransferFrom(address,address,uint256,bytes)": {
        "details": "See {IERC721-safeTransferFrom}."
      },
      "setApprovalForAll(address,bool)": {
        "details": "See {IERC721-setApprovalForAll}."
      },
      "symbol()": {
        "details": "See {IERC721Metadata-symbol}."
      },
      "tokenByIndex(uint256)": {
        "details": "See {IERC721Enumerable-tokenByIndex}."
      },
      "tokenOfOwnerByIndex(address,uint256)": {
        "details": "See {IERC721Enumerable-tokenOfOwnerByIndex}."
      },
      "tokensByAddress(address)": {
        "details": "Returns all token IDs owned by a specific address",
        "params": {
          "_account": "The address to query"
        },
        "returns": {
          "_0": "Array of token IDs owned by the address"
        }
      },
      "totalSupply()": {
        "details": "See {IERC721Enumerable-totalSupply}."
      },
      "transferFrom(address,address,uint256)": {
        "details": "See {IERC721-transferFrom}."
      },
      "transferOwnership(address)": {
        "details": "Transfers ownership of the contract to a new account (`newOwner`). Can only be called by the current owner."
      }
    },
    "title": "PropertyNFT",
    "version": 1
  },
  "userdoc": {
    "kind": "user",
    "methods": {
      "tokensByAddress(address)": {
        "notice": "May be gas intensive for addresses with many tokens"
      }
    },
    "version": 1
  },
  "storageLayout": {
    "storage": [
      {
        "astId": 10821,
        "contract": "contracts/PropertyNFT.sol:PropertyNFT",
        "label": "marketplace",
        "offset": 0,
        "slot": "0",
        "type": "t_contract(IMarketplace)10803"
      },
      {
        "astId": 10824,
        "contract": "contracts/PropertyNFT.sol:PropertyNFT",
        "label": "fractionalMarketplace",
        "offset": 0,
        "slot": "1",
        "type": "t_contract(IMarketplace)10803"
      },
      {
        "astId": 10826,
        "contract": "contracts/PropertyNFT.sol:PropertyNFT",
        "label": "_nextTokenId",
        "offset": 0,
        "slot": "2",
        "type": "t_uint256"
      },
      {
        "astId": 10828,
        "contract": "contracts/PropertyNFT.sol:PropertyNFT",
        "label": "_nextFracTokenId",
        "offset": 0,
        "slot": "3",
        "type": "t_uint256"
      },
      {
        "astId": 10854,
        "contract": "contracts/PropertyNFT.sol:PropertyNFT",
        "label": "propertyFeature",
        "offset": 0,
        "slot": "4",
        "type": "t_mapping(t_uint256,t_struct(Feature)10849_storage)"
      },
      {
        "astId": 10858,
        "contract": "contracts/PropertyNFT.sol:PropertyNFT",
        "label": "_blacklist",
        "offset": 0,
        "slot": "5",
        "type": "t_mapping(t_address,t_bool)"
      }
    ],
    "types": {
      "t_address": {
        "encoding": "inplace",
        "label": "address",
        "numberOfBytes": "20"
      },
      "t_bool": {
        "encoding": "inplace",
        "label": "bool",
        "numberOfBytes": "1"
      },
      "t_contract(IMarketplace)10803": {
        "encoding": "inplace",
        "label": "contract IMarketplace",
        "numberOfBytes": "20"
      },
      "t_enum(PropertyType)10837": {
        "encoding": "inplace",
        "label": "enum PropertyNFT.PropertyType",
        "numberOfBytes": "1"
      },
      "t_mapping(t_address,t_bool)": {
        "encoding": "mapping",
        "key": "t_address",
        "label": "mapping(address => bool)",
        "numberOfBytes": "32",
        "value": "t_bool"
      },
      "t_mapping(t_uint256,t_struct(Feature)10849_storage)": {
        "encoding": "mapping",
        "key": "t_uint256",
        "label": "mapping(uint256 => struct PropertyNFT.Feature)",
        "numberOfBytes": "32",
        "value": "t_struct(Feature)10849_storage"
      },
      "t_string_storage": {
        "encoding": "bytes",
        "label": "string",
        "numberOfBytes": "32"
      },
      "t_struct(Feature)10849_storage": {
        "encoding": "inplace",
        "label": "struct PropertyNFT.Feature",
        "members": [
          {
            "astId": 10840,
            "contract": "contracts/PropertyNFT.sol:PropertyNFT",
            "label": "propertyType",
            "offset": 0,
            "slot": "0",
            "type": "t_enum(PropertyType)10837"
          },
          {
            "astId": 10842,
            "contract": "contracts/PropertyNFT.sol:PropertyNFT",
            "label": "physicalAddress",
            "offset": 0,
            "slot": "1",
            "type": "t_string_storage"
          },
          {
            "astId": 10844,
            "contract": "contracts/PropertyNFT.sol:PropertyNFT",
            "label": "rooms",
            "offset": 0,
            "slot": "2",
            "type": "t_uint256"
          },
          {
            "astId": 10846,
            "contract": "contracts/PropertyNFT.sol:PropertyNFT",
            "label": "bathrooms",
            "offset": 0,
            "slot": "3",
            "type": "t_uint256"
          },
          {
            "astId": 10848,
            "contract": "contracts/PropertyNFT.sol:PropertyNFT",
            "label": "area",
            "offset": 0,
            "slot": "4",
            "type": "t_uint256"
          }
        ],
        "numberOfBytes": "160"
      },
      "t_uint256": {
        "encoding": "inplace",
        "label": "uint256",
        "numberOfBytes": "32"
      }
    }
  }
}