{
  "address": "0x77568462f078518bF18c6C372eEE281605dbF476",
  "abi": [
    {
      "inputs": [],
      "name": "AccessControlBadConfirmation",
      "type": "error"
    },
    {
      "inputs": [
        {
          "internalType": "address",
          "name": "account",
          "type": "address"
        },
        {
          "internalType": "bytes32",
          "name": "neededRole",
          "type": "bytes32"
        }
      ],
      "name": "AccessControlUnauthorizedAccount",
      "type": "error"
    },
    {
      "inputs": [],
      "name": "EnforcedPause",
      "type": "error"
    },
    {
      "inputs": [],
      "name": "ExpectedPause",
      "type": "error"
    },
    {
      "inputs": [],
      "name": "InvalidInitialization",
      "type": "error"
    },
    {
      "inputs": [],
      "name": "NotInitializing",
      "type": "error"
    },
    {
      "inputs": [
        {
          "internalType": "address",
          "name": "owner",
          "type": "address"
        }
      ],
      "name": "OwnableInvalidOwner",
      "type": "error"
    },
    {
      "inputs": [
        {
          "internalType": "address",
          "name": "account",
          "type": "address"
        }
      ],
      "name": "OwnableUnauthorizedAccount",
      "type": "error"
    },
    {
      "anonymous": false,
      "inputs": [
        {
          "indexed": false,
          "internalType": "uint64",
          "name": "version",
          "type": "uint64"
        }
      ],
      "name": "Initialized",
      "type": "event"
    },
    {
      "anonymous": false,
      "inputs": [
        {
          "indexed": true,
          "internalType": "address",
          "name": "previousOwner",
          "type": "address"
        },
        {
          "indexed": true,
          "internalType": "address",
          "name": "newOwner",
          "type": "address"
        }
      ],
      "name": "OwnershipTransferred",
      "type": "event"
    },
    {
      "anonymous": false,
      "inputs": [
        {
          "indexed": false,
          "internalType": "address",
          "name": "account",
          "type": "address"
        }
      ],
      "name": "Paused",
      "type": "event"
    },
    {
      "anonymous": false,
      "inputs": [
        {
          "indexed": true,
          "internalType": "uint256",
          "name": "tokenId",
          "type": "uint256"
        },
        {
          "indexed": true,
          "internalType": "address",
          "name": "buyer",
          "type": "address"
        },
        {
          "indexed": false,
          "internalType": "uint256",
          "name": "sharesBought",
          "type": "uint256"
        }
      ],
      "name": "PropertyBought",
      "type": "event"
    },
    {
      "anonymous": false,
      "inputs": [
        {
          "indexed": true,
          "internalType": "address",
          "name": "lister",
          "type": "address"
        },
        {
          "indexed": false,
          "internalType": "uint256",
          "name": "tokenId",
          "type": "uint256"
        },
        {
          "indexed": false,
          "internalType": "uint256",
          "name": "price",
          "type": "uint256"
        },
        {
          "indexed": false,
          "internalType": "address",
          "name": "propertyToken",
          "type": "address"
        },
        {
          "indexed": false,
          "internalType": "uint256",
          "name": "pricePerShare",
          "type": "uint256"
        }
      ],
      "name": "PropertyListed",
      "type": "event"
    },
    {
      "anonymous": false,
      "inputs": [
        {
          "indexed": true,
          "internalType": "bytes32",
          "name": "role",
          "type": "bytes32"
        },
        {
          "indexed": true,
          "internalType": "bytes32",
          "name": "previousAdminRole",
          "type": "bytes32"
        },
        {
          "indexed": true,
          "internalType": "bytes32",
          "name": "newAdminRole",
          "type": "bytes32"
        }
      ],
      "name": "RoleAdminChanged",
      "type": "event"
    },
    {
      "anonymous": false,
      "inputs": [
        {
          "indexed": true,
          "internalType": "bytes32",
          "name": "role",
          "type": "bytes32"
        },
        {
          "indexed": true,
          "internalType": "address",
          "name": "account",
          "type": "address"
        },
        {
          "indexed": true,
          "internalType": "address",
          "name": "sender",
          "type": "address"
        }
      ],
      "name": "RoleGranted",
      "type": "event"
    },
    {
      "anonymous": false,
      "inputs": [
        {
          "indexed": true,
          "internalType": "bytes32",
          "name": "role",
          "type": "bytes32"
        },
        {
          "indexed": true,
          "internalType": "address",
          "name": "account",
          "type": "address"
        },
        {
          "indexed": true,
          "internalType": "address",
          "name": "sender",
          "type": "address"
        }
      ],
      "name": "RoleRevoked",
      "type": "event"
    },
    {
      "anonymous": false,
      "inputs": [
        {
          "indexed": false,
          "internalType": "address",
          "name": "account",
          "type": "address"
        }
      ],
      "name": "Unpaused",
      "type": "event"
    },
    {
      "inputs": [],
      "name": "DEFAULT_ADMIN_ROLE",
      "outputs": [
        {
          "internalType": "bytes32",
          "name": "",
          "type": "bytes32"
        }
      ],
      "stateMutability": "view",
      "type": "function"
    },
    {
      "inputs": [],
      "name": "LISTER_ROLE",
      "outputs": [
        {
          "internalType": "bytes32",
          "name": "",
          "type": "bytes32"
        }
      ],
      "stateMutability": "view",
      "type": "function"
    },
    {
      "inputs": [],
      "name": "TBUSDtoken",
      "outputs": [
        {
          "internalType": "contract IERC20",
          "name": "",
          "type": "address"
        }
      ],
      "stateMutability": "view",
      "type": "function"
    },
    {
      "inputs": [
        {
          "internalType": "uint256",
          "name": "_tokenID",
          "type": "uint256"
        },
        {
          "internalType": "uint256",
          "name": "_shares",
          "type": "uint256"
        }
      ],
      "name": "buyPropertyShare",
      "outputs": [],
      "stateMutability": "nonpayable",
      "type": "function"
    },
    {
      "inputs": [
        {
          "internalType": "address",
          "name": "lister",
          "type": "address"
        },
        {
          "internalType": "uint256",
          "name": "_tokenId",
          "type": "uint256"
        },
        {
          "internalType": "uint256",
          "name": "_price",
          "type": "uint256"
        }
      ],
      "name": "createProperty",
      "outputs": [],
      "stateMutability": "nonpayable",
      "type": "function"
    },
    {
      "inputs": [
        {
          "internalType": "uint256[]",
          "name": "_tokenId",
          "type": "uint256[]"
        }
      ],
      "name": "getBatchMarketItem",
      "outputs": [
        {
          "components": [
            {
              "internalType": "address",
              "name": "seller",
              "type": "address"
            },
            {
              "internalType": "uint256",
              "name": "price",
              "type": "uint256"
            },
            {
              "internalType": "address",
              "name": "propertyToken",
              "type": "address"
            },
            {
              "internalType": "uint256",
              "name": "pricePerShare",
              "type": "uint256"
            },
            {
              "internalType": "uint256",
              "name": "sharesAvailable",
              "type": "uint256"
            },
            {
              "internalType": "uint256",
              "name": "timeListed",
              "type": "uint256"
            }
          ],
          "internalType": "struct MarketplaceFractional.MarketItem[]",
          "name": "",
          "type": "tuple[]"
        }
      ],
      "stateMutability": "view",
      "type": "function"
    },
    {
      "inputs": [
        {
          "internalType": "uint256",
          "name": "_tokenId",
          "type": "uint256"
        }
      ],
      "name": "getMarketItem",
      "outputs": [
        {
          "components": [
            {
              "internalType": "address",
              "name": "seller",
              "type": "address"
            },
            {
              "internalType": "uint256",
              "name": "price",
              "type": "uint256"
            },
            {
              "internalType": "address",
              "name": "propertyToken",
              "type": "address"
            },
            {
              "internalType": "uint256",
              "name": "pricePerShare",
              "type": "uint256"
            },
            {
              "internalType": "uint256",
              "name": "sharesAvailable",
              "type": "uint256"
            },
            {
              "internalType": "uint256",
              "name": "timeListed",
              "type": "uint256"
            }
          ],
          "internalType": "struct MarketplaceFractional.MarketItem",
          "name": "",
          "type": "tuple"
        }
      ],
      "stateMutability": "view",
      "type": "function"
    },
    {
      "inputs": [
        {
          "internalType": "bytes32",
          "name": "role",
          "type": "bytes32"
        }
      ],
      "name": "getRoleAdmin",
      "outputs": [
        {
          "internalType": "bytes32",
          "name": "",
          "type": "bytes32"
        }
      ],
      "stateMutability": "view",
      "type": "function"
    },
    {
      "inputs": [
        {
          "internalType": "uint256",
          "name": "_tokenID",
          "type": "uint256"
        }
      ],
      "name": "getSharePrice",
      "outputs": [
        {
          "internalType": "uint256",
          "name": "",
          "type": "uint256"
        }
      ],
      "stateMutability": "view",
      "type": "function"
    },
    {
      "inputs": [
        {
          "internalType": "address",
          "name": "_minter",
          "type": "address"
        }
      ],
      "name": "grantListerRole",
      "outputs": [],
      "stateMutability": "nonpayable",
      "type": "function"
    },
    {
      "inputs": [
        {
          "internalType": "bytes32",
          "name": "role",
          "type": "bytes32"
        },
        {
          "internalType": "address",
          "name": "account",
          "type": "address"
        }
      ],
      "name": "grantRole",
      "outputs": [],
      "stateMutability": "nonpayable",
      "type": "function"
    },
    {
      "inputs": [
        {
          "internalType": "bytes32",
          "name": "role",
          "type": "bytes32"
        },
        {
          "internalType": "address",
          "name": "account",
          "type": "address"
        }
      ],
      "name": "hasRole",
      "outputs": [
        {
          "internalType": "bool",
          "name": "",
          "type": "bool"
        }
      ],
      "stateMutability": "view",
      "type": "function"
    },
    {
      "inputs": [],
      "name": "initialize",
      "outputs": [],
      "stateMutability": "nonpayable",
      "type": "function"
    },
    {
      "inputs": [
        {
          "internalType": "uint256",
          "name": "",
          "type": "uint256"
        }
      ],
      "name": "items",
      "outputs": [
        {
          "internalType": "address",
          "name": "seller",
          "type": "address"
        },
        {
          "internalType": "uint256",
          "name": "price",
          "type": "uint256"
        },
        {
          "internalType": "address",
          "name": "propertyToken",
          "type": "address"
        },
        {
          "internalType": "uint256",
          "name": "pricePerShare",
          "type": "uint256"
        },
        {
          "internalType": "uint256",
          "name": "sharesAvailable",
          "type": "uint256"
        },
        {
          "internalType": "uint256",
          "name": "timeListed",
          "type": "uint256"
        }
      ],
      "stateMutability": "view",
      "type": "function"
    },
    {
      "inputs": [
        {
          "internalType": "address",
          "name": "operator",
          "type": "address"
        },
        {
          "internalType": "address",
          "name": "from",
          "type": "address"
        },
        {
          "internalType": "uint256",
          "name": "tokenId",
          "type": "uint256"
        },
        {
          "internalType": "bytes",
          "name": "data",
          "type": "bytes"
        }
      ],
      "name": "onERC721Received",
      "outputs": [
        {
          "internalType": "bytes4",
          "name": "",
          "type": "bytes4"
        }
      ],
      "stateMutability": "pure",
      "type": "function"
    },
    {
      "inputs": [],
      "name": "owner",
      "outputs": [
        {
          "internalType": "address",
          "name": "",
          "type": "address"
        }
      ],
      "stateMutability": "view",
      "type": "function"
    },
    {
      "inputs": [],
      "name": "paused",
      "outputs": [
        {
          "internalType": "bool",
          "name": "",
          "type": "bool"
        }
      ],
      "stateMutability": "view",
      "type": "function"
    },
    {
      "inputs": [],
      "name": "propertyNFT",
      "outputs": [
        {
          "internalType": "contract IERC721",
          "name": "",
          "type": "address"
        }
      ],
      "stateMutability": "view",
      "type": "function"
    },
    {
      "inputs": [],
      "name": "renounceOwnership",
      "outputs": [],
      "stateMutability": "nonpayable",
      "type": "function"
    },
    {
      "inputs": [
        {
          "internalType": "bytes32",
          "name": "role",
          "type": "bytes32"
        },
        {
          "internalType": "address",
          "name": "callerConfirmation",
          "type": "address"
        }
      ],
      "name": "renounceRole",
      "outputs": [],
      "stateMutability": "nonpayable",
      "type": "function"
    },
    {
      "inputs": [
        {
          "internalType": "bytes32",
          "name": "role",
          "type": "bytes32"
        },
        {
          "internalType": "address",
          "name": "account",
          "type": "address"
        }
      ],
      "name": "revokeRole",
      "outputs": [],
      "stateMutability": "nonpayable",
      "type": "function"
    },
    {
      "inputs": [
        {
          "internalType": "contract IERC20",
          "name": "_token",
          "type": "address"
        }
      ],
      "name": "setBUSDtoken",
      "outputs": [],
      "stateMutability": "nonpayable",
      "type": "function"
    },
    {
      "inputs": [
        {
          "internalType": "address",
          "name": "_nftAddress",
          "type": "address"
        }
      ],
      "name": "setPopertyNFT",
      "outputs": [],
      "stateMutability": "nonpayable",
      "type": "function"
    },
    {
      "inputs": [
        {
          "internalType": "uint256",
          "name": "_total",
          "type": "uint256"
        }
      ],
      "name": "setTotalShare",
      "outputs": [],
      "stateMutability": "nonpayable",
      "type": "function"
    },
    {
      "inputs": [
        {
          "internalType": "bytes4",
          "name": "interfaceId",
          "type": "bytes4"
        }
      ],
      "name": "supportsInterface",
      "outputs": [
        {
          "internalType": "bool",
          "name": "",
          "type": "bool"
        }
      ],
      "stateMutability": "view",
      "type": "function"
    },
    {
      "inputs": [],
      "name": "totalShare",
      "outputs": [
        {
          "internalType": "uint256",
          "name": "",
          "type": "uint256"
        }
      ],
      "stateMutability": "view",
      "type": "function"
    },
    {
      "inputs": [
        {
          "internalType": "address",
          "name": "newOwner",
          "type": "address"
        }
      ],
      "name": "transferOwnership",
      "outputs": [],
      "stateMutability": "nonpayable",
      "type": "function"
    },
    {
      "inputs": [
        {
          "internalType": "address",
          "name": "to",
          "type": "address"
        },
        {
          "internalType": "uint256",
          "name": "amount",
          "type": "uint256"
        }
      ],
      "name": "withdrawBUSD",
      "outputs": [],
      "stateMutability": "nonpayable",
      "type": "function"
    },
    {
      "inputs": [
        {
          "internalType": "address",
          "name": "to",
          "type": "address"
        },
        {
          "internalType": "uint256",
          "name": "_tokenId",
          "type": "uint256"
        }
      ],
      "name": "withdrawNFT",
      "outputs": [],
      "stateMutability": "nonpayable",
      "type": "function"
    },
    {
      "inputs": [
        {
          "internalType": "address",
          "name": "token",
          "type": "address"
        },
        {
          "internalType": "address",
          "name": "to",
          "type": "address"
        },
        {
          "internalType": "uint256",
          "name": "amount",
          "type": "uint256"
        }
      ],
      "name": "withdrawToken",
      "outputs": [],
      "stateMutability": "nonpayable",
      "type": "function"
    }
  ],
  "transactionHash": "0x564301a7baefecfe04605735d4f45480eca65aaa5da11650ce438f00ebed4155",
  "args": [],
  "numDeployments": 1,
  "solcInputHash": "fd44df96c2c918be737bf88d46893173",
  "bytecode": "0x608060405234801561001057600080fd5b50612909806100206000396000f3fe60806040523480156200001157600080fd5b5060043610620002015760003560e01c8063715018a61162000119578063bfb231d211620000af578063e89b81ce116200007a578063e89b81ce1462000536578063e8bebf4e146200054d578063f22417381462000564578063f2fde38b146200057b57600080fd5b8063bfb231d2146200044e578063c7be7a4914620004e2578063d547741f1462000508578063deb26b94146200051f57600080fd5b806391d1485411620000f057806391d1485414620003f4578063a217fddf146200040b578063bca7d4e11462000414578063bd97d175146200043a57600080fd5b8063715018a614620003d65780638129fc1c14620003e05780638da5cb5b14620003ea57600080fd5b80632e75f432116200019b57806352f1a42e116200016657806352f1a42e14620003575780635c975abb146200037d5780636088e93a14620003a8578063621719c014620003bf57600080fd5b80632e75f43214620002e55780632f2ff15d14620002fc57806336568abe146200031357806337f76838146200032a57600080fd5b8063150b7a0211620001dc578063150b7a02146200026457806318c9323e14620002a05780631f29b9d514620002b7578063248a9ca314620002ce57600080fd5b806301e33667146200020657806301ffc9a7146200021f578063026c4207146200024b575b600080fd5b6200021d6200021736600462001711565b62000592565b005b620002366200023036600462001757565b62000618565b60405190151581526020015b60405180910390f35b6200025560005481565b60405190815260200162000242565b62000286620002753660046200178a565b630a85bd0160e11b95945050505050565b6040516001600160e01b0319909116815260200162000242565b6200021d620002b136600462001832565b62000650565b6200021d620002c836600462001832565b6200067c565b62000255620002df36600462001852565b620006a5565b6200021d620002f63660046200186c565b620006c8565b6200021d6200030d366004620018a4565b6200093b565b6200021d62000324366004620018a4565b6200095d565b6001546200033e906001600160a01b031681565b6040516001600160a01b03909116815260200162000242565b6200036e62000368366004620018ed565b62000998565b604051620002429190620019fc565b7fcd5ed15c6e187e77e9aee88184c21f4f2182ab5827cb3b7e07fbedcd63f033005460ff1662000236565b6200021d620003b936600462001a4e565b62000aca565b6200021d620003d036600462001852565b62000b46565b6200021d62000b55565b6200021d62000b6d565b6200033e62000ce7565b6200023662000405366004620018a4565b62000d15565b62000255600081565b620002556200042536600462001852565b60009081526003602052604090206001015490565b6002546200033e906001600160a01b031681565b620004a36200045f36600462001852565b60036020819052600091825260409091208054600182015460028301549383015460048401546005909401546001600160a01b039384169592949390921692909186565b604080516001600160a01b039788168152602081019690965293909516928401929092526060830152608082015260a081019190915260c00162000242565b620004f9620004f336600462001852565b62000d4e565b60405162000242919062001a7d565b6200021d62000519366004620018a4565b62000dbe565b620002556000805160206200289483398151915281565b6200021d6200054736600462001a8d565b62000de0565b6200021d6200055e36600462001832565b620011d7565b6200021d6200057536600462001a4e565b62001203565b6200021d6200058c36600462001832565b62001287565b6200059c620012cb565b60405163a9059cbb60e01b81526001600160a01b0383811660048301526024820183905284169063a9059cbb906044016020604051808303816000875af1158015620005ec573d6000803e3d6000fd5b505050506040513d601f19601f8201168201806040525081019062000612919062001ab0565b50505050565b60006001600160e01b03198216637965db0b60e01b14806200064a57506301ffc9a760e01b6001600160e01b03198316145b92915050565b6200065a620012cb565b600180546001600160a01b0319166001600160a01b0392909216919091179055565b62000686620012cb565b620006a1600080516020620028948339815191528262001301565b5050565b6000908152600080516020620028b4833981519152602052604090206001015490565b620006d2620013ad565b620006ed600080516020620028948339815191523362000d15565b620007565760405162461bcd60e51b815260206004820152602e60248201527f63726561746550726f70657274793a2043616c6c657220646f206e6f7420686160448201526d7665206c697374657220726f6c6560901b60648201526084015b60405180910390fd5b60006200076383620013f1565b60405160200162000775919062001afa565b6040516020818303038152906040526200078f84620013f1565b604051602001620007a1919062001b41565b604051602081830303815290604052600054670de0b6b3a7640000620007c8919062001b87565b30604051620007d790620016a5565b620007e6949392919062001bcf565b604051809103906000f08015801562000803573d6000803e3d6000fd5b5090506040518060c00160405280856001600160a01b03168152602001838152602001826001600160a01b031681526020016000548462000845919062001c1a565b815260008054602080840191909152426040938401528682526003808252838320855181546001600160a01b03199081166001600160a01b0392831617835593870151600183015594860151600282018054909416908616179092556060850151908201556080840151600482015560a0909301516005909301929092559054908516907ffe86316f66c33514e2ebf279ba0cd726fe55b054d81367b3473bce5146031cd090859085908590620008fd908362001c1a565b6040516200092d949392919093845260208401929092526001600160a01b03166040830152606082015260800190565b60405180910390a250505050565b6200094682620006a5565b62000951816200148b565b62000612838362001301565b6001600160a01b0381163314620009875760405163334bd91960e11b815260040160405180910390fd5b62000993828262001497565b505050565b60606000825167ffffffffffffffff811115620009b957620009b9620018d7565b604051908082528060200260200182016040528015620009f657816020015b620009e2620016b3565b815260200190600190039081620009d85790505b50905060005b835181101562000ac3576003600085838151811062000a1f5762000a1f62001c3d565b6020908102919091018101518252818101929092526040908101600020815160c08101835281546001600160a01b03908116825260018301549482019490945260028201549093169183019190915260038101546060830152600481015460808301526005015460a0820152825183908390811062000aa25762000aa262001c3d565b6020026020010181905250808062000aba9062001c53565b915050620009fc565b5092915050565b62000ad4620012cb565b6001546040516323b872dd60e01b81523060048201526001600160a01b03848116602483015260448201849052909116906323b872dd90606401600060405180830381600087803b15801562000b2957600080fd5b505af115801562000b3e573d6000803e3d6000fd5b505050505050565b62000b50620012cb565b600055565b62000b5f620012cb565b62000b6b600062001518565b565b7ff0c57e16840df040f15088dc2f81fe391c3923bec73e23a9662efc9c229c6a008054600160401b810460ff16159067ffffffffffffffff1660008115801562000bb45750825b905060008267ffffffffffffffff16600114801562000bd25750303b155b90508115801562000be1575080155b1562000c005760405163f92ee8a960e01b815260040160405180910390fd5b845467ffffffffffffffff19166001178555831562000c2b57845460ff60401b1916600160401b1785555b62000c363362001518565b6103e86000908155600280546001600160a01b0319167377eff133ed48a27b04545f73a17348da4fbddf0217905562000c799062000c7362000ce7565b62001301565b5062000c986000805160206200289483398151915262000c7362000ce7565b50831562000ce057845460ff60401b19168555604051600181527fc7f505b2f371ae2175ee4913f4499e1f2633a7b5936321eed1cdaeb6115181d29060200160405180910390a15b5050505050565b7f9016d09d72d40fdae2fd8ceac6b6234c7706214fd39c1cd1e609a0528c199300546001600160a01b031690565b6000918252600080516020620028b4833981519152602090815260408084206001600160a01b0393909316845291905290205460ff1690565b62000d58620016b3565b50600090815260036020818152604092839020835160c08101855281546001600160a01b0390811682526001830154938201939093526002820154909216938201939093529082015460608201526004820154608082015260059091015460a082015290565b62000dc982620006a5565b62000dd4816200148b565b62000612838362001497565b600082815260036020526040902080546001600160a01b031662000e5f5760405162461bcd60e51b815260206004820152602f60248201527f62757950726f70657274793a204974656d206e6f74206c6973746564206f6e2060448201526e746865206d61726b6574706c61636560881b60648201526084016200074d565b8054336001600160a01b039091160362000ed75760405162461bcd60e51b815260206004820152603260248201527f62757950726f70657274793a20596f752063616e6e6f74206275792061206974604482015271195b481d1a185d081e5bdd481b1a5cdd195960721b60648201526084016200074d565b818160040154101562000f2d5760405162461bcd60e51b815260206004820152601b60248201527f4e6f7420656e6f7567682073686172657320617661696c61626c65000000000060448201526064016200074d565b60018101546002546040516370a0823160e01b81523360048201526001600160a01b03909116906370a0823190602401602060405180830381865afa15801562000f7b573d6000803e3d6000fd5b505050506040513d601f19601f8201168201806040525081019062000fa1919062001c6f565b1015620010035760405162461bcd60e51b815260206004820152602960248201527f62757950726f70657274793a2020425553442062616c616e636520697320696e6044820152681cdd59999a58d95b9d60ba1b60648201526084016200074d565b600082826003015462001017919062001b87565b6002546040516323b872dd60e01b8152336004820152306024820152604481018390529192506001600160a01b0316906323b872dd906064016020604051808303816000875af115801562001070573d6000803e3d6000fd5b505050506040513d601f19601f8201168201806040525081019062001096919062001ab0565b620010e45760405162461bcd60e51b815260206004820152601860248201527f496e636f7272656374207061796d656e7420616d6f756e74000000000000000060448201526064016200074d565b60028201546001600160a01b031663a9059cbb336200110c86670de0b6b3a764000062001b87565b6040516001600160e01b031960e085901b1681526001600160a01b03909216600483015260248201526044016020604051808303816000875af115801562001158573d6000803e3d6000fd5b505050506040513d601f19601f820116820180604052508101906200117e919062001ab0565b508282600401600082825462001195919062001c89565b9091555050604051838152339085907f290f2083cde0be163feaae46ca85fea0ffc5f20ab98f90fcc19040a6f9a192559060200160405180910390a350505050565b620011e1620012cb565b600280546001600160a01b0319166001600160a01b0392909216919091179055565b6200120d620012cb565b60025460405163a9059cbb60e01b81526001600160a01b038481166004830152602482018490529091169063a9059cbb906044016020604051808303816000875af115801562001261573d6000803e3d6000fd5b505050506040513d601f19601f8201168201806040525081019062000993919062001ab0565b62001291620012cb565b6001600160a01b038116620012bd57604051631e4fbdf760e01b8152600060048201526024016200074d565b620012c88162001518565b50565b33620012d662000ce7565b6001600160a01b03161462000b6b5760405163118cdaa760e01b81523360048201526024016200074d565b6000600080516020620028b48339815191526200131f848462000d15565b620013a2576000848152602082815260408083206001600160a01b03871684529091529020805460ff19166001179055620013573390565b6001600160a01b0316836001600160a01b0316857f2f8788117e7eff1d82e926ec794901d17c78024a50270940304540a733656f0d60405160405180910390a460019150506200064a565b60009150506200064a565b7fcd5ed15c6e187e77e9aee88184c21f4f2182ab5827cb3b7e07fbedcd63f033005460ff161562000b6b5760405163d93c066560e01b815260040160405180910390fd5b60606000620014008362001589565b600101905060008167ffffffffffffffff811115620014235762001423620018d7565b6040519080825280601f01601f1916602001820160405280156200144e576020820181803683370190505b5090508181016020015b600019016f181899199a1a9b1b9c1cb0b131b232b360811b600a86061a8153600a85049450846200145857509392505050565b620012c8813362001668565b6000600080516020620028b4833981519152620014b5848462000d15565b15620013a2576000848152602082815260408083206001600160a01b0387168085529252808320805460ff1916905551339287917ff6391f5c32d9c69d2a47ea670b442974b53935d1edc7fd64eb21e047a839171b9190a460019150506200064a565b7f9016d09d72d40fdae2fd8ceac6b6234c7706214fd39c1cd1e609a0528c19930080546001600160a01b031981166001600160a01b03848116918217845560405192169182907f8be0079c531659141344cd1fd0a4f28419497f9722a3daafe3b4186f6b6457e090600090a3505050565b60008072184f03e93ff9f4daa797ed6e38ed64bf6a1f0160401b8310620015c95772184f03e93ff9f4daa797ed6e38ed64bf6a1f0160401b830492506040015b6d04ee2d6d415b85acef81000000008310620015f6576d04ee2d6d415b85acef8100000000830492506020015b662386f26fc1000083106200161557662386f26fc10000830492506010015b6305f5e10083106200162e576305f5e100830492506008015b61271083106200164357612710830492506004015b6064831062001656576064830492506002015b600a83106200064a5760010192915050565b62001674828262000d15565b620006a15760405163e2517d3f60e01b81526001600160a01b0382166004820152602481018390526044016200074d565b610bf48062001ca083390190565b6040518060c0016040528060006001600160a01b031681526020016000815260200160006001600160a01b031681526020016000815260200160008152602001600081525090565b6001600160a01b0381168114620012c857600080fd5b6000806000606084860312156200172757600080fd5b83356200173481620016fb565b925060208401356200174681620016fb565b929592945050506040919091013590565b6000602082840312156200176a57600080fd5b81356001600160e01b0319811681146200178357600080fd5b9392505050565b600080600080600060808688031215620017a357600080fd5b8535620017b081620016fb565b94506020860135620017c281620016fb565b935060408601359250606086013567ffffffffffffffff80821115620017e757600080fd5b818801915088601f830112620017fc57600080fd5b8135818111156200180c57600080fd5b8960208285010111156200181f57600080fd5b9699959850939650602001949392505050565b6000602082840312156200184557600080fd5b81356200178381620016fb565b6000602082840312156200186557600080fd5b5035919050565b6000806000606084860312156200188257600080fd5b83356200188f81620016fb565b95602085013595506040909401359392505050565b60008060408385031215620018b857600080fd5b823591506020830135620018cc81620016fb565b809150509250929050565b634e487b7160e01b600052604160045260246000fd5b600060208083850312156200190157600080fd5b823567ffffffffffffffff808211156200191a57600080fd5b818501915085601f8301126200192f57600080fd5b813581811115620019445762001944620018d7565b8060051b604051601f19603f830116810181811085821117156200196c576200196c620018d7565b6040529182528482019250838101850191888311156200198b57600080fd5b938501935b82851015620019ab5784358452938501939285019262001990565b98975050505050505050565b80516001600160a01b0390811683526020808301519084015260408083015190911690830152606080820151908301526080808201519083015260a090810151910152565b6020808252825182820181905260009190848201906040850190845b8181101562001a425762001a2e838551620019b7565b9284019260c0929092019160010162001a18565b50909695505050505050565b6000806040838503121562001a6257600080fd5b823562001a6f81620016fb565b946020939093013593505050565b60c081016200064a8284620019b7565b6000806040838503121562001aa157600080fd5b50508035926020909101359150565b60006020828403121562001ac357600080fd5b815180151581146200178357600080fd5b60005b8381101562001af157818101518382015260200162001ad7565b50506000910152565b7f4573746174652d776562332070726f706572747953686172652000000000000081526000825162001b3481601a85016020870162001ad4565b91909101601a0192915050565b6545534841524560d01b81526000825162001b6481600685016020870162001ad4565b9190910160060192915050565b634e487b7160e01b600052601160045260246000fd5b80820281158282048414176200064a576200064a62001b71565b6000815180845262001bbb81602086016020860162001ad4565b601f01601f19169290920160200192915050565b60808152600062001be4608083018762001ba1565b828103602084015262001bf8818762001ba1565b604084019590955250506001600160a01b039190911660609091015292915050565b60008262001c3857634e487b7160e01b600052601260045260246000fd5b500490565b634e487b7160e01b600052603260045260246000fd5b60006001820162001c685762001c6862001b71565b5060010190565b60006020828403121562001c8257600080fd5b5051919050565b818103818111156200064a576200064a62001b7156fe60806040523480156200001157600080fd5b5060405162000bf438038062000bf48339810160408190526200003491620002ac565b83836003620000448382620003d0565b506004620000538282620003d0565b5050506200006881836200007260201b60201c565b50505050620004c4565b6001600160a01b038216620000a25760405163ec442f0560e01b8152600060048201526024015b60405180910390fd5b620000b060008383620000b4565b5050565b6001600160a01b038316620000e3578060026000828254620000d791906200049c565b90915550620001579050565b6001600160a01b03831660009081526020819052604090205481811015620001385760405163391434e360e21b81526001600160a01b0385166004820152602481018290526044810183905260640162000099565b6001600160a01b03841660009081526020819052604090209082900390555b6001600160a01b038216620001755760028054829003905562000194565b6001600160a01b03821660009081526020819052604090208054820190555b816001600160a01b0316836001600160a01b03167fddf252ad1be2c89b69c2b068fc378daa952ba7f163c4a11628f55a4df523b3ef83604051620001da91815260200190565b60405180910390a3505050565b634e487b7160e01b600052604160045260246000fd5b600082601f8301126200020f57600080fd5b81516001600160401b03808211156200022c576200022c620001e7565b604051601f8301601f19908116603f01168101908282118183101715620002575762000257620001e7565b816040528381526020925086838588010111156200027457600080fd5b600091505b8382101562000298578582018301518183018401529082019062000279565b600093810190920192909252949350505050565b60008060008060808587031215620002c357600080fd5b84516001600160401b0380821115620002db57600080fd5b620002e988838901620001fd565b955060208701519150808211156200030057600080fd5b506200030f87828801620001fd565b60408701516060880151919550935090506001600160a01b03811681146200033657600080fd5b939692955090935050565b600181811c908216806200035657607f821691505b6020821081036200037757634e487b7160e01b600052602260045260246000fd5b50919050565b601f821115620003cb57600081815260208120601f850160051c81016020861015620003a65750805b601f850160051c820191505b81811015620003c757828155600101620003b2565b5050505b505050565b81516001600160401b03811115620003ec57620003ec620001e7565b6200040481620003fd845462000341565b846200037d565b602080601f8311600181146200043c5760008415620004235750858301515b600019600386901b1c1916600185901b178555620003c7565b600085815260208120601f198616915b828110156200046d578886015182559484019460019091019084016200044c565b50858210156200048c5787850151600019600388901b60f8161c191681555b5050505050600190811b01905550565b80820180821115620004be57634e487b7160e01b600052601160045260246000fd5b92915050565b61072080620004d46000396000f3fe608060405234801561001057600080fd5b50600436106100935760003560e01c8063313ce56711610066578063313ce567146100fe57806370a082311461010d57806395d89b4114610136578063a9059cbb1461013e578063dd62ed3e1461015157600080fd5b806306fdde0314610098578063095ea7b3146100b657806318160ddd146100d957806323b872dd146100eb575b600080fd5b6100a061018a565b6040516100ad919061056a565b60405180910390f35b6100c96100c43660046105d4565b61021c565b60405190151581526020016100ad565b6002545b6040519081526020016100ad565b6100c96100f93660046105fe565b610236565b604051601281526020016100ad565b6100dd61011b36600461063a565b6001600160a01b031660009081526020819052604090205490565b6100a061025a565b6100c961014c3660046105d4565b610269565b6100dd61015f36600461065c565b6001600160a01b03918216600090815260016020908152604080832093909416825291909152205490565b6060600380546101999061068f565b80601f01602080910402602001604051908101604052809291908181526020018280546101c59061068f565b80156102125780601f106101e757610100808354040283529160200191610212565b820191906000526020600020905b8154815290600101906020018083116101f557829003601f168201915b5050505050905090565b60003361022a818585610277565b60019150505b92915050565b600033610244858285610289565b61024f85858561030c565b506001949350505050565b6060600480546101999061068f565b60003361022a81858561030c565b610284838383600161036b565b505050565b6001600160a01b03838116600090815260016020908152604080832093861683529290522054600019811461030657818110156102f757604051637dc7a0d960e11b81526001600160a01b038416600482015260248101829052604481018390526064015b60405180910390fd5b6103068484848403600061036b565b50505050565b6001600160a01b03831661033657604051634b637e8f60e11b8152600060048201526024016102ee565b6001600160a01b0382166103605760405163ec442f0560e01b8152600060048201526024016102ee565b610284838383610440565b6001600160a01b0384166103955760405163e602df0560e01b8152600060048201526024016102ee565b6001600160a01b0383166103bf57604051634a1406b160e11b8152600060048201526024016102ee565b6001600160a01b038085166000908152600160209081526040808320938716835292905220829055801561030657826001600160a01b0316846001600160a01b03167f8c5be1e5ebec7d5bd14f71427d1e84f3dd0314c0f7b2291e5b200ac8c7c3b9258460405161043291815260200190565b60405180910390a350505050565b6001600160a01b03831661046b57806002600082825461046091906106c9565b909155506104dd9050565b6001600160a01b038316600090815260208190526040902054818110156104be5760405163391434e360e21b81526001600160a01b038516600482015260248101829052604481018390526064016102ee565b6001600160a01b03841660009081526020819052604090209082900390555b6001600160a01b0382166104f957600280548290039055610518565b6001600160a01b03821660009081526020819052604090208054820190555b816001600160a01b0316836001600160a01b03167fddf252ad1be2c89b69c2b068fc378daa952ba7f163c4a11628f55a4df523b3ef8360405161055d91815260200190565b60405180910390a3505050565b600060208083528351808285015260005b818110156105975785810183015185820160400152820161057b565b506000604082860101526040601f19601f8301168501019250505092915050565b80356001600160a01b03811681146105cf57600080fd5b919050565b600080604083850312156105e757600080fd5b6105f0836105b8565b946020939093013593505050565b60008060006060848603121561061357600080fd5b61061c846105b8565b925061062a602085016105b8565b9150604084013590509250925092565b60006020828403121561064c57600080fd5b610655826105b8565b9392505050565b6000806040838503121561066f57600080fd5b610678836105b8565b9150610686602084016105b8565b90509250929050565b600181811c908216806106a357607f821691505b6020821081036106c357634e487b7160e01b600052602260045260246000fd5b50919050565b8082018082111561023057634e487b7160e01b600052601160045260246000fdfea264697066735822122022150b41ccc33eb08be4e038fba973ebd2275bc3c8d21a1b94c799d9a3b7663864736f6c63430008140033f94103142c1baabe9ac2b5d1487bf783de9e69cfeea9a72f5c9c94afd7877b8c02dd7bc7dec4dceedda775e58dd541e08a116c6c53815c0bd028192f7b626800a26469706673582212202cff815a40d086dd79fbad0131b608f71c803b675d9324c4d7b883959a067cec64736f6c63430008140033",
  "devdoc": {
    "errors": {
      "AccessControlBadConfirmation()": [
        {
          "details": "The caller of a function is not the expected one. NOTE: Don't confuse with {AccessControlUnauthorizedAccount}."
        }
      ],
      "AccessControlUnauthorizedAccount(address,bytes32)": [
        {
          "details": "The `account` is missing a role."
        }
      ],
      "EnforcedPause()": [
        {
          "details": "The operation failed because the contract is paused."
        }
      ],
      "ExpectedPause()": [
        {
          "details": "The operation failed because the contract is not paused."
        }
      ],
      "InvalidInitialization()": [
        {
          "details": "The contract is already initialized."
        }
      ],
      "NotInitializing()": [
        {
          "details": "The contract is not initializing."
        }
      ],
      "OwnableInvalidOwner(address)": [
        {
          "details": "The owner is not a valid owner account. (eg. `address(0)`)"
        }
      ],
      "OwnableUnauthorizedAccount(address)": [
        {
          "details": "The caller account is not authorized to perform an operation."
        }
      ]
    },
    "events": {
      "Initialized(uint64)": {
        "details": "Triggered when the contract has been initialized or reinitialized."
      },
      "Paused(address)": {
        "details": "Emitted when the pause is triggered by `account`."
      },
      "RoleAdminChanged(bytes32,bytes32,bytes32)": {
        "details": "Emitted when `newAdminRole` is set as ``role``'s admin role, replacing `previousAdminRole` `DEFAULT_ADMIN_ROLE` is the starting admin for all roles, despite {RoleAdminChanged} not being emitted signaling this."
      },
      "RoleGranted(bytes32,address,address)": {
        "details": "Emitted when `account` is granted `role`. `sender` is the account that originated the contract call. This account bears the admin role (for the granted role). Expected in cases where the role was granted using the internal {AccessControl-_grantRole}."
      },
      "RoleRevoked(bytes32,address,address)": {
        "details": "Emitted when `account` is revoked `role`. `sender` is the account that originated the contract call:   - if using `revokeRole`, it is the admin role bearer   - if using `renounceRole`, it is the role bearer (i.e. `account`)"
      },
      "Unpaused(address)": {
        "details": "Emitted when the pause is lifted by `account`."
      }
    },
    "kind": "dev",
    "methods": {
      "getRoleAdmin(bytes32)": {
        "details": "Returns the admin role that controls `role`. See {grantRole} and {revokeRole}. To change a role's admin, use {_setRoleAdmin}."
      },
      "grantRole(bytes32,address)": {
        "details": "Grants `role` to `account`. If `account` had not been already granted `role`, emits a {RoleGranted} event. Requirements: - the caller must have ``role``'s admin role. May emit a {RoleGranted} event."
      },
      "hasRole(bytes32,address)": {
        "details": "Returns `true` if `account` has been granted `role`."
      },
      "onERC721Received(address,address,uint256,bytes)": {
        "details": "Whenever an {IERC721} `tokenId` token is transferred to this contract via {IERC721-safeTransferFrom} by `operator` from `from`, this function is called. It must return its Solidity selector to confirm the token transfer. If any other value is returned or the interface is not implemented by the recipient, the transfer will be reverted. The selector can be obtained in Solidity with `IERC721Receiver.onERC721Received.selector`."
      },
      "owner()": {
        "details": "Returns the address of the current owner."
      },
      "paused()": {
        "details": "Returns true if the contract is paused, and false otherwise."
      },
      "renounceOwnership()": {
        "details": "Leaves the contract without owner. It will not be possible to call `onlyOwner` functions. Can only be called by the current owner. NOTE: Renouncing ownership will leave the contract without an owner, thereby disabling any functionality that is only available to the owner."
      },
      "renounceRole(bytes32,address)": {
        "details": "Revokes `role` from the calling account. Roles are often managed via {grantRole} and {revokeRole}: this function's purpose is to provide a mechanism for accounts to lose their privileges if they are compromised (such as when a trusted device is misplaced). If the calling account had been revoked `role`, emits a {RoleRevoked} event. Requirements: - the caller must be `callerConfirmation`. May emit a {RoleRevoked} event."
      },
      "revokeRole(bytes32,address)": {
        "details": "Revokes `role` from `account`. If `account` had been granted `role`, emits a {RoleRevoked} event. Requirements: - the caller must have ``role``'s admin role. May emit a {RoleRevoked} event."
      },
      "supportsInterface(bytes4)": {
        "details": "See {IERC165-supportsInterface}."
      },
      "transferOwnership(address)": {
        "details": "Transfers ownership of the contract to a new account (`newOwner`). Can only be called by the current owner."
      }
    },
    "version": 1
  },
  "userdoc": {
    "kind": "user",
    "methods": {},
    "version": 1
  },
  "storageLayout": {
    "storage": [
      {
        "astId": 10262,
        "contract": "contracts/MarketplaceFractional.sol:MarketplaceFractional",
        "label": "totalShare",
        "offset": 0,
        "slot": "0",
        "type": "t_uint256"
      },
      {
        "astId": 10265,
        "contract": "contracts/MarketplaceFractional.sol:MarketplaceFractional",
        "label": "propertyNFT",
        "offset": 0,
        "slot": "1",
        "type": "t_contract(IERC721)4293"
      },
      {
        "astId": 10268,
        "contract": "contracts/MarketplaceFractional.sol:MarketplaceFractional",
        "label": "TBUSDtoken",
        "offset": 0,
        "slot": "2",
        "type": "t_contract(IERC20)4150"
      },
      {
        "astId": 10291,
        "contract": "contracts/MarketplaceFractional.sol:MarketplaceFractional",
        "label": "items",
        "offset": 0,
        "slot": "3",
        "type": "t_mapping(t_uint256,t_struct(MarketItem)10286_storage)"
      }
    ],
    "types": {
      "t_address": {
        "encoding": "inplace",
        "label": "address",
        "numberOfBytes": "20"
      },
      "t_contract(IERC20)4150": {
        "encoding": "inplace",
        "label": "contract IERC20",
        "numberOfBytes": "20"
      },
      "t_contract(IERC721)4293": {
        "encoding": "inplace",
        "label": "contract IERC721",
        "numberOfBytes": "20"
      },
      "t_mapping(t_uint256,t_struct(MarketItem)10286_storage)": {
        "encoding": "mapping",
        "key": "t_uint256",
        "label": "mapping(uint256 => struct MarketplaceFractional.MarketItem)",
        "numberOfBytes": "32",
        "value": "t_struct(MarketItem)10286_storage"
      },
      "t_struct(MarketItem)10286_storage": {
        "encoding": "inplace",
        "label": "struct MarketplaceFractional.MarketItem",
        "members": [
          {
            "astId": 10275,
            "contract": "contracts/MarketplaceFractional.sol:MarketplaceFractional",
            "label": "seller",
            "offset": 0,
            "slot": "0",
            "type": "t_address"
          },
          {
            "astId": 10277,
            "contract": "contracts/MarketplaceFractional.sol:MarketplaceFractional",
            "label": "price",
            "offset": 0,
            "slot": "1",
            "type": "t_uint256"
          },
          {
            "astId": 10279,
            "contract": "contracts/MarketplaceFractional.sol:MarketplaceFractional",
            "label": "propertyToken",
            "offset": 0,
            "slot": "2",
            "type": "t_address"
          },
          {
            "astId": 10281,
            "contract": "contracts/MarketplaceFractional.sol:MarketplaceFractional",
            "label": "pricePerShare",
            "offset": 0,
            "slot": "3",
            "type": "t_uint256"
          },
          {
            "astId": 10283,
            "contract": "contracts/MarketplaceFractional.sol:MarketplaceFractional",
            "label": "sharesAvailable",
            "offset": 0,
            "slot": "4",
            "type": "t_uint256"
          },
          {
            "astId": 10285,
            "contract": "contracts/MarketplaceFractional.sol:MarketplaceFractional",
            "label": "timeListed",
            "offset": 0,
            "slot": "5",
            "type": "t_uint256"
          }
        ],
        "numberOfBytes": "192"
      },
      "t_uint256": {
        "encoding": "inplace",
        "label": "uint256",
        "numberOfBytes": "32"
      }
    }
  }
}